{
  "_format": "hh-sol-artifact-1",
  "contractName": "NFTCollection",
  "sourceName": "contracts/NFTCollection.sol",
  "abi": [
    {
      "inputs": [
        {
          "internalType": "string",
          "name": "name",
          "type": "string"
        },
        {
          "internalType": "string",
          "name": "symbol",
          "type": "string"
        },
        {
          "internalType": "address",
          "name": "_treasury",
          "type": "address"
        },
        {
          "internalType": "address",
          "name": "_galleryWallet",
          "type": "address"
        }
      ],
      "stateMutability": "nonpayable",
      "type": "constructor"
    },
    {
      "inputs": [],
      "name": "BatchTooLarge",
      "type": "error"
    },
    {
      "inputs": [],
      "name": "ERC721EnumerableForbiddenBatchMint",
      "type": "error"
    },
    {
      "inputs": [
        {
          "internalType": "address",
          "name": "sender",
          "type": "address"
        },
        {
          "internalType": "uint256",
          "name": "tokenId",
          "type": "uint256"
        },
        {
          "internalType": "address",
          "name": "owner",
          "type": "address"
        }
      ],
      "name": "ERC721IncorrectOwner",
      "type": "error"
    },
    {
      "inputs": [
        {
          "internalType": "address",
          "name": "operator",
          "type": "address"
        },
        {
          "internalType": "uint256",
          "name": "tokenId",
          "type": "uint256"
        }
      ],
      "name": "ERC721InsufficientApproval",
      "type": "error"
    },
    {
      "inputs": [
        {
          "internalType": "address",
          "name": "approver",
          "type": "address"
        }
      ],
      "name": "ERC721InvalidApprover",
      "type": "error"
    },
    {
      "inputs": [
        {
          "internalType": "address",
          "name": "operator",
          "type": "address"
        }
      ],
      "name": "ERC721InvalidOperator",
      "type": "error"
    },
    {
      "inputs": [
        {
          "internalType": "address",
          "name": "owner",
          "type": "address"
        }
      ],
      "name": "ERC721InvalidOwner",
      "type": "error"
    },
    {
      "inputs": [
        {
          "internalType": "address",
          "name": "receiver",
          "type": "address"
        }
      ],
      "name": "ERC721InvalidReceiver",
      "type": "error"
    },
    {
      "inputs": [
        {
          "internalType": "address",
          "name": "sender",
          "type": "address"
        }
      ],
      "name": "ERC721InvalidSender",
      "type": "error"
    },
    {
      "inputs": [
        {
          "internalType": "uint256",
          "name": "tokenId",
          "type": "uint256"
        }
      ],
      "name": "ERC721NonexistentToken",
      "type": "error"
    },
    {
      "inputs": [
        {
          "internalType": "address",
          "name": "owner",
          "type": "address"
        },
        {
          "internalType": "uint256",
          "name": "index",
          "type": "uint256"
        }
      ],
      "name": "ERC721OutOfBoundsIndex",
      "type": "error"
    },
    {
      "inputs": [],
      "name": "EmptyBatch",
      "type": "error"
    },
    {
      "inputs": [],
      "name": "EnforcedPause",
      "type": "error"
    },
    {
      "inputs": [],
      "name": "ExpectedPause",
      "type": "error"
    },
    {
      "inputs": [],
      "name": "IncorrectPayment",
      "type": "error"
    },
    {
      "inputs": [],
      "name": "InvalidAddress",
      "type": "error"
    },
    {
      "inputs": [],
      "name": "InvalidArrayLength",
      "type": "error"
    },
    {
      "inputs": [],
      "name": "InvalidPrice",
      "type": "error"
    },
    {
      "inputs": [],
      "name": "NotTokenOwner",
      "type": "error"
    },
    {
      "inputs": [
        {
          "internalType": "address",
          "name": "owner",
          "type": "address"
        }
      ],
      "name": "OwnableInvalidOwner",
      "type": "error"
    },
    {
      "inputs": [
        {
          "internalType": "address",
          "name": "account",
          "type": "address"
        }
      ],
      "name": "OwnableUnauthorizedAccount",
      "type": "error"
    },
    {
      "inputs": [],
      "name": "ReentrancyGuardReentrantCall",
      "type": "error"
    },
    {
      "inputs": [],
      "name": "TokenAlreadySold",
      "type": "error"
    },
    {
      "inputs": [],
      "name": "TokenNotForSale",
      "type": "error"
    },
    {
      "inputs": [],
      "name": "TransferFailed",
      "type": "error"
    },
    {
      "inputs": [],
      "name": "ValueTooHigh",
      "type": "error"
    },
    {
      "anonymous": false,
      "inputs": [
        {
          "indexed": true,
          "internalType": "address",
          "name": "owner",
          "type": "address"
        },
        {
          "indexed": true,
          "internalType": "address",
          "name": "approved",
          "type": "address"
        },
        {
          "indexed": true,
          "internalType": "uint256",
          "name": "tokenId",
          "type": "uint256"
        }
      ],
      "name": "Approval",
      "type": "event"
    },
    {
      "anonymous": false,
      "inputs": [
        {
          "indexed": true,
          "internalType": "address",
          "name": "owner",
          "type": "address"
        },
        {
          "indexed": true,
          "internalType": "address",
          "name": "operator",
          "type": "address"
        },
        {
          "indexed": false,
          "internalType": "bool",
          "name": "approved",
          "type": "bool"
        }
      ],
      "name": "ApprovalForAll",
      "type": "event"
    },
    {
      "anonymous": false,
      "inputs": [
        {
          "indexed": false,
          "internalType": "uint256",
          "name": "_fromTokenId",
          "type": "uint256"
        },
        {
          "indexed": false,
          "internalType": "uint256",
          "name": "_toTokenId",
          "type": "uint256"
        }
      ],
      "name": "BatchMetadataUpdate",
      "type": "event"
    },
    {
      "anonymous": false,
      "inputs": [
        {
          "indexed": true,
          "internalType": "address",
          "name": "minter",
          "type": "address"
        },
        {
          "indexed": true,
          "internalType": "string",
          "name": "batchId",
          "type": "string"
        },
        {
          "indexed": true,
          "internalType": "uint256",
          "name": "startTokenId",
          "type": "uint256"
        },
        {
          "indexed": false,
          "internalType": "uint256",
          "name": "count",
          "type": "uint256"
        }
      ],
      "name": "BatchMinted",
      "type": "event"
    },
    {
      "anonymous": false,
      "inputs": [
        {
          "indexed": true,
          "internalType": "address",
          "name": "buyer",
          "type": "address"
        },
        {
          "indexed": true,
          "internalType": "uint256",
          "name": "tokenId",
          "type": "uint256"
        }
      ],
      "name": "DoubleSaleAttempt",
      "type": "event"
    },
    {
      "anonymous": false,
      "inputs": [
        {
          "indexed": false,
          "internalType": "uint256",
          "name": "_tokenId",
          "type": "uint256"
        }
      ],
      "name": "MetadataUpdate",
      "type": "event"
    },
    {
      "anonymous": false,
      "inputs": [
        {
          "indexed": true,
          "internalType": "address",
          "name": "previousOwner",
          "type": "address"
        },
        {
          "indexed": true,
          "internalType": "address",
          "name": "newOwner",
          "type": "address"
        }
      ],
      "name": "OwnershipTransferred",
      "type": "event"
    },
    {
      "anonymous": false,
      "inputs": [
        {
          "indexed": false,
          "internalType": "address",
          "name": "account",
          "type": "address"
        }
      ],
      "name": "Paused",
      "type": "event"
    },
    {
      "anonymous": false,
      "inputs": [
        {
          "indexed": true,
          "internalType": "uint256",
          "name": "tokenId",
          "type": "uint256"
        },
        {
          "indexed": false,
          "internalType": "address",
          "name": "artist",
          "type": "address"
        },
        {
          "indexed": false,
          "internalType": "uint256",
          "name": "amount",
          "type": "uint256"
        }
      ],
      "name": "RoyaltyPaid",
      "type": "event"
    },
    {
      "anonymous": false,
      "inputs": [
        {
          "indexed": true,
          "internalType": "uint256",
          "name": "tokenId",
          "type": "uint256"
        },
        {
          "indexed": false,
          "internalType": "uint256",
          "name": "price",
          "type": "uint256"
        }
      ],
      "name": "TokenListed",
      "type": "event"
    },
    {
      "anonymous": false,
      "inputs": [
        {
          "indexed": true,
          "internalType": "uint256",
          "name": "tokenId",
          "type": "uint256"
        },
        {
          "indexed": true,
          "internalType": "address",
          "name": "buyer",
          "type": "address"
        },
        {
          "indexed": true,
          "internalType": "address",
          "name": "seller",
          "type": "address"
        },
        {
          "indexed": false,
          "internalType": "uint256",
          "name": "price",
          "type": "uint256"
        }
      ],
      "name": "TokenPurchased",
      "type": "event"
    },
    {
      "anonymous": false,
      "inputs": [
        {
          "indexed": true,
          "internalType": "uint256",
          "name": "tokenId",
          "type": "uint256"
        }
      ],
      "name": "TokenUnlisted",
      "type": "event"
    },
    {
      "anonymous": false,
      "inputs": [
        {
          "indexed": true,
          "internalType": "address",
          "name": "from",
          "type": "address"
        },
        {
          "indexed": true,
          "internalType": "address",
          "name": "to",
          "type": "address"
        },
        {
          "indexed": true,
          "internalType": "uint256",
          "name": "tokenId",
          "type": "uint256"
        }
      ],
      "name": "Transfer",
      "type": "event"
    },
    {
      "anonymous": false,
      "inputs": [
        {
          "indexed": false,
          "internalType": "address",
          "name": "account",
          "type": "address"
        }
      ],
      "name": "Unpaused",
      "type": "event"
    },
    {
      "inputs": [],
      "name": "BASIS_POINTS",
      "outputs": [
        {
          "internalType": "uint256",
          "name": "",
          "type": "uint256"
        }
      ],
      "stateMutability": "view",
      "type": "function"
    },
    {
      "inputs": [],
      "name": "MAX_BATCH_SIZE",
      "outputs": [
        {
          "internalType": "uint256",
          "name": "",
          "type": "uint256"
        }
      ],
      "stateMutability": "view",
      "type": "function"
    },
    {
      "inputs": [
        {
          "internalType": "address",
          "name": "to",
          "type": "address"
        },
        {
          "internalType": "uint256",
          "name": "tokenId",
          "type": "uint256"
        }
      ],
      "name": "approve",
      "outputs": [],
      "stateMutability": "nonpayable",
      "type": "function"
    },
    {
      "inputs": [
        {
          "internalType": "address",
          "name": "owner",
          "type": "address"
        }
      ],
      "name": "balanceOf",
      "outputs": [
        {
          "internalType": "uint256",
          "name": "",
          "type": "uint256"
        }
      ],
      "stateMutability": "view",
      "type": "function"
    },
    {
      "inputs": [
        {
          "internalType": "string",
          "name": "",
          "type": "string"
        }
      ],
      "name": "batchInfo",
      "outputs": [
        {
          "internalType": "uint128",
          "name": "totalTokens",
          "type": "uint128"
        },
        {
          "internalType": "uint128",
          "name": "timestamp",
          "type": "uint128"
        }
      ],
      "stateMutability": "view",
      "type": "function"
    },
    {
      "inputs": [
        {
          "internalType": "address[]",
          "name": "recipients",
          "type": "address[]"
        },
        {
          "internalType": "string[]",
          "name": "tokenURIs",
          "type": "string[]"
        },
        {
          "internalType": "address[]",
          "name": "artists",
          "type": "address[]"
        },
        {
          "internalType": "uint32[]",
          "name": "royalties",
          "type": "uint32[]"
        },
        {
          "internalType": "string",
          "name": "batchId",
          "type": "string"
        }
      ],
      "name": "batchMint",
      "outputs": [],
      "stateMutability": "nonpayable",
      "type": "function"
    },
    {
      "inputs": [
        {
          "internalType": "string",
          "name": "",
          "type": "string"
        },
        {
          "internalType": "uint256",
          "name": "",
          "type": "uint256"
        }
      ],
      "name": "batchTokenIds",
      "outputs": [
        {
          "internalType": "uint256",
          "name": "",
          "type": "uint256"
        }
      ],
      "stateMutability": "view",
      "type": "function"
    },
    {
      "inputs": [],
      "name": "galleryFee",
      "outputs": [
        {
          "internalType": "uint32",
          "name": "",
          "type": "uint32"
        }
      ],
      "stateMutability": "view",
      "type": "function"
    },
    {
      "inputs": [],
      "name": "galleryWallet",
      "outputs": [
        {
          "internalType": "address",
          "name": "",
          "type": "address"
        }
      ],
      "stateMutability": "view",
      "type": "function"
    },
    {
      "inputs": [
        {
          "internalType": "uint256",
          "name": "tokenId",
          "type": "uint256"
        }
      ],
      "name": "getApproved",
      "outputs": [
        {
          "internalType": "address",
          "name": "",
          "type": "address"
        }
      ],
      "stateMutability": "view",
      "type": "function"
    },
    {
      "inputs": [
        {
          "internalType": "string",
          "name": "batchId",
          "type": "string"
        }
      ],
      "name": "getBatchTokens",
      "outputs": [
        {
          "internalType": "uint256[]",
          "name": "",
          "type": "uint256[]"
        }
      ],
      "stateMutability": "view",
      "type": "function"
    },
    {
      "inputs": [
        {
          "internalType": "uint256",
          "name": "tokenId",
          "type": "uint256"
        }
      ],
      "name": "getTokenInfo",
      "outputs": [
        {
          "internalType": "address",
          "name": "owner",
          "type": "address"
        },
        {
          "internalType": "address",
          "name": "artist",
          "type": "address"
        },
        {
          "internalType": "uint256",
          "name": "price",
          "type": "uint256"
        },
        {
          "internalType": "uint32",
          "name": "royalty",
          "type": "uint32"
        },
        {
          "internalType": "bool",
          "name": "forSale",
          "type": "bool"
        },
        {
          "internalType": "bool",
          "name": "sold",
          "type": "bool"
        },
        {
          "internalType": "string",
          "name": "uri",
          "type": "string"
        }
      ],
      "stateMutability": "view",
      "type": "function"
    },
    {
      "inputs": [],
      "name": "getTokensForSale",
      "outputs": [
        {
          "internalType": "uint256[]",
          "name": "",
          "type": "uint256[]"
        }
      ],
      "stateMutability": "view",
      "type": "function"
    },
    {
      "inputs": [
        {
          "internalType": "address",
          "name": "owner",
          "type": "address"
        },
        {
          "internalType": "address",
          "name": "operator",
          "type": "address"
        }
      ],
      "name": "isApprovedForAll",
      "outputs": [
        {
          "internalType": "bool",
          "name": "",
          "type": "bool"
        }
      ],
      "stateMutability": "view",
      "type": "function"
    },
    {
      "inputs": [
        {
          "internalType": "uint256",
          "name": "tokenId",
          "type": "uint256"
        }
      ],
      "name": "isSold",
      "outputs": [
        {
          "internalType": "bool",
          "name": "",
          "type": "bool"
        }
      ],
      "stateMutability": "view",
      "type": "function"
    },
    {
      "inputs": [
        {
          "internalType": "uint256",
          "name": "tokenId",
          "type": "uint256"
        },
        {
          "internalType": "uint128",
          "name": "price",
          "type": "uint128"
        }
      ],
      "name": "listToken",
      "outputs": [],
      "stateMutability": "nonpayable",
      "type": "function"
    },
    {
      "inputs": [],
      "name": "maxRoyalty",
      "outputs": [
        {
          "internalType": "uint32",
          "name": "",
          "type": "uint32"
        }
      ],
      "stateMutability": "view",
      "type": "function"
    },
    {
      "inputs": [
        {
          "internalType": "address",
          "name": "recipient",
          "type": "address"
        },
        {
          "internalType": "string",
          "name": "uri",
          "type": "string"
        },
        {
          "internalType": "address",
          "name": "artist",
          "type": "address"
        },
        {
          "internalType": "uint32",
          "name": "royalty",
          "type": "uint32"
        }
      ],
      "name": "mintNFT",
      "outputs": [
        {
          "internalType": "uint256",
          "name": "",
          "type": "uint256"
        }
      ],
      "stateMutability": "nonpayable",
      "type": "function"
    },
    {
      "inputs": [],
      "name": "name",
      "outputs": [
        {
          "internalType": "string",
          "name": "",
          "type": "string"
        }
      ],
      "stateMutability": "view",
      "type": "function"
    },
    {
      "inputs": [],
      "name": "owner",
      "outputs": [
        {
          "internalType": "address",
          "name": "",
          "type": "address"
        }
      ],
      "stateMutability": "view",
      "type": "function"
    },
    {
      "inputs": [
        {
          "internalType": "uint256",
          "name": "tokenId",
          "type": "uint256"
        }
      ],
      "name": "ownerOf",
      "outputs": [
        {
          "internalType": "address",
          "name": "",
          "type": "address"
        }
      ],
      "stateMutability": "view",
      "type": "function"
    },
    {
      "inputs": [],
      "name": "pause",
      "outputs": [],
      "stateMutability": "nonpayable",
      "type": "function"
    },
    {
      "inputs": [],
      "name": "paused",
      "outputs": [
        {
          "internalType": "bool",
          "name": "",
          "type": "bool"
        }
      ],
      "stateMutability": "view",
      "type": "function"
    },
    {
      "inputs": [],
      "name": "platformFee",
      "outputs": [
        {
          "internalType": "uint32",
          "name": "",
          "type": "uint32"
        }
      ],
      "stateMutability": "view",
      "type": "function"
    },
    {
      "inputs": [
        {
          "internalType": "uint256",
          "name": "tokenId",
          "type": "uint256"
        }
      ],
      "name": "purchaseToken",
      "outputs": [],
      "stateMutability": "payable",
      "type": "function"
    },
    {
      "inputs": [],
      "name": "renounceOwnership",
      "outputs": [],
      "stateMutability": "nonpayable",
      "type": "function"
    },
    {
      "inputs": [
        {
          "internalType": "uint256",
          "name": "tokenId",
          "type": "uint256"
        },
        {
          "internalType": "uint256",
          "name": "salePrice",
          "type": "uint256"
        }
      ],
      "name": "royaltyInfo",
      "outputs": [
        {
          "internalType": "address",
          "name": "receiver",
          "type": "address"
        },
        {
          "internalType": "uint256",
          "name": "royaltyAmount",
          "type": "uint256"
        }
      ],
      "stateMutability": "view",
      "type": "function"
    },
    {
      "inputs": [
        {
          "internalType": "address",
          "name": "from",
          "type": "address"
        },
        {
          "internalType": "address",
          "name": "to",
          "type": "address"
        },
        {
          "internalType": "uint256",
          "name": "tokenId",
          "type": "uint256"
        }
      ],
      "name": "safeTransferFrom",
      "outputs": [],
      "stateMutability": "nonpayable",
      "type": "function"
    },
    {
      "inputs": [
        {
          "internalType": "address",
          "name": "from",
          "type": "address"
        },
        {
          "internalType": "address",
          "name": "to",
          "type": "address"
        },
        {
          "internalType": "uint256",
          "name": "tokenId",
          "type": "uint256"
        },
        {
          "internalType": "bytes",
          "name": "data",
          "type": "bytes"
        }
      ],
      "name": "safeTransferFrom",
      "outputs": [],
      "stateMutability": "nonpayable",
      "type": "function"
    },
    {
      "inputs": [
        {
          "internalType": "address",
          "name": "operator",
          "type": "address"
        },
        {
          "internalType": "bool",
          "name": "approved",
          "type": "bool"
        }
      ],
      "name": "setApprovalForAll",
      "outputs": [],
      "stateMutability": "nonpayable",
      "type": "function"
    },
    {
      "inputs": [
        {
          "internalType": "uint32",
          "name": "_galleryFee",
          "type": "uint32"
        }
      ],
      "name": "setGalleryFee",
      "outputs": [],
      "stateMutability": "nonpayable",
      "type": "function"
    },
    {
      "inputs": [
        {
          "internalType": "address",
          "name": "_galleryWallet",
          "type": "address"
        }
      ],
      "name": "setGalleryWallet",
      "outputs": [],
      "stateMutability": "nonpayable",
      "type": "function"
    },
    {
      "inputs": [
        {
          "internalType": "uint32",
          "name": "_platformFee",
          "type": "uint32"
        }
      ],
      "name": "setPlatformFee",
      "outputs": [],
      "stateMutability": "nonpayable",
      "type": "function"
    },
    {
      "inputs": [
        {
          "internalType": "address",
          "name": "_treasury",
          "type": "address"
        }
      ],
      "name": "setTreasury",
      "outputs": [],
      "stateMutability": "nonpayable",
      "type": "function"
    },
    {
      "inputs": [
        {
          "internalType": "bytes4",
          "name": "interfaceId",
          "type": "bytes4"
        }
      ],
      "name": "supportsInterface",
      "outputs": [
        {
          "internalType": "bool",
          "name": "",
          "type": "bool"
        }
      ],
      "stateMutability": "view",
      "type": "function"
    },
    {
      "inputs": [],
      "name": "symbol",
      "outputs": [
        {
          "internalType": "string",
          "name": "",
          "type": "string"
        }
      ],
      "stateMutability": "view",
      "type": "function"
    },
    {
      "inputs": [
        {
          "internalType": "uint256",
          "name": "index",
          "type": "uint256"
        }
      ],
      "name": "tokenByIndex",
      "outputs": [
        {
          "internalType": "uint256",
          "name": "",
          "type": "uint256"
        }
      ],
      "stateMutability": "view",
      "type": "function"
    },
    {
      "inputs": [
        {
          "internalType": "address",
          "name": "owner",
          "type": "address"
        },
        {
          "internalType": "uint256",
          "name": "index",
          "type": "uint256"
        }
      ],
      "name": "tokenOfOwnerByIndex",
      "outputs": [
        {
          "internalType": "uint256",
          "name": "",
          "type": "uint256"
        }
      ],
      "stateMutability": "view",
      "type": "function"
    },
    {
      "inputs": [
        {
          "internalType": "uint256",
          "name": "tokenId",
          "type": "uint256"
        }
      ],
      "name": "tokenURI",
      "outputs": [
        {
          "internalType": "string",
          "name": "",
          "type": "string"
        }
      ],
      "stateMutability": "view",
      "type": "function"
    },
    {
      "inputs": [],
      "name": "totalSupply",
      "outputs": [
        {
          "internalType": "uint256",
          "name": "",
          "type": "uint256"
        }
      ],
      "stateMutability": "view",
      "type": "function"
    },
    {
      "inputs": [
        {
          "internalType": "address",
          "name": "from",
          "type": "address"
        },
        {
          "internalType": "address",
          "name": "to",
          "type": "address"
        },
        {
          "internalType": "uint256",
          "name": "tokenId",
          "type": "uint256"
        }
      ],
      "name": "transferFrom",
      "outputs": [],
      "stateMutability": "nonpayable",
      "type": "function"
    },
    {
      "inputs": [
        {
          "internalType": "address",
          "name": "newOwner",
          "type": "address"
        }
      ],
      "name": "transferOwnership",
      "outputs": [],
      "stateMutability": "nonpayable",
      "type": "function"
    },
    {
      "inputs": [],
      "name": "treasury",
      "outputs": [
        {
          "internalType": "address",
          "name": "",
          "type": "address"
        }
      ],
      "stateMutability": "view",
      "type": "function"
    },
    {
      "inputs": [
        {
          "internalType": "uint256",
          "name": "tokenId",
          "type": "uint256"
        }
      ],
      "name": "unlistToken",
      "outputs": [],
      "stateMutability": "nonpayable",
      "type": "function"
    },
    {
      "inputs": [],
      "name": "unpause",
      "outputs": [],
      "stateMutability": "nonpayable",
      "type": "function"
    }
  ],
  "bytecode": "0x6080604052601280546001600160601b0319166903e8000001f4000003e81790553480156200002d57600080fd5b506040516200392938038062003929833981016040819052620000509162000270565b33848460006200006183826200038e565b5060016200007082826200038e565b5050506001600160a01b038116620000a257604051631e4fbdf760e01b81526000600482015260240160405180910390fd5b620000ad816200013c565b506001600c556001600160a01b0382161580620000d157506001600160a01b038116155b15620000f05760405163e6c4247b60e01b815260040160405180910390fd5b601280546001600160601b03166c010000000000000000000000006001600160a01b0394851602179055601380546001600160a01b0319169190921617905550506001600e556200045a565b600b80546001600160a01b038381166001600160a01b0319831681179093556040519116919082907f8be0079c531659141344cd1fd0a4f28419497f9722a3daafe3b4186f6b6457e090600090a35050565b634e487b7160e01b600052604160045260246000fd5b600082601f830112620001b657600080fd5b81516001600160401b0380821115620001d357620001d36200018e565b604051601f8301601f19908116603f01168101908282118183101715620001fe57620001fe6200018e565b816040528381526020925086838588010111156200021b57600080fd5b600091505b838210156200023f578582018301518183018401529082019062000220565b600093810190920192909252949350505050565b80516001600160a01b03811681146200026b57600080fd5b919050565b600080600080608085870312156200028757600080fd5b84516001600160401b03808211156200029f57600080fd5b620002ad88838901620001a4565b95506020870151915080821115620002c457600080fd5b50620002d387828801620001a4565b935050620002e46040860162000253565b9150620002f46060860162000253565b905092959194509250565b600181811c908216806200031457607f821691505b6020821081036200033557634e487b7160e01b600052602260045260246000fd5b50919050565b601f8211156200038957600081815260208120601f850160051c81016020861015620003645750805b601f850160051c820191505b81811015620003855782815560010162000370565b5050505b505050565b81516001600160401b03811115620003aa57620003aa6200018e565b620003c281620003bb8454620002ff565b846200033b565b602080601f831160018114620003fa5760008415620003e15750858301515b600019600386901b1c1916600185901b17855562000385565b600085815260208120601f198616915b828110156200042b578886015182559484019460019091019084016200040a565b50858210156200044a5787850151600019600388901b60f8161c191681555b5050505050600190811b01905550565b6134bf806200046a6000396000f3fe6080604052600436106102725760003560e01c806361d027b31161014f57806395d89b41116100c1578063c87b56dd1161007a578063c87b56dd146107ea578063cfdbf2541461080a578063e1f1c4a71461081f578063e985e9c514610835578063f0f4426014610855578063f2fde38b1461087557600080fd5b806395d89b411461073d57806399fe616214610752578063a22cb46514610777578063ad3a358c14610797578063b88d4fde146107b7578063c2db2c42146107d757600080fd5b8063715018a611610113578063715018a61461063657806372f0e22b1461064b5780638456cb591461066b5780638c7a63ae146106805780638da5cb5b146106b3578063957d2e69146106d157600080fd5b806361d027b3146105965780636352211e146105bd57806365e4e1c0146105dd578063674a12c7146105f257806370a082311461061657600080fd5b806323b872dd116101e85780633f4ba83a116101ac5780633f4ba83a146104e957806340b93a06146104fe57806342842e0e1461051e5780634f6ccce71461053e57806355dfa7a81461055e5780635c975abb1461057e57600080fd5b806323b872dd1461041857806326232a2e14610438578063284e77da1461046a5780632a55205a1461048a5780632f745c59146104c957600080fd5b8063071871b11161023a578063071871b114610349578063081812fc14610369578063095ea7b3146103a1578063146fbb79146103c357806318160ddd146103e35780631cfa581e146103f857600080fd5b80630110a1761461027757806301202f7d146102ac57806301ea70e0146102d957806301ffc9a71461030757806306fdde0314610327575b600080fd5b34801561028357600080fd5b50610297610292366004612b28565b610895565b60405190151581526020015b60405180910390f35b3480156102b857600080fd5b506102cc6102c7366004612b82565b6108f3565b6040516102a39190612bc3565b3480156102e557600080fd5b506102f96102f4366004612cb2565b610967565b6040519081526020016102a3565b34801561031357600080fd5b50610297610322366004612d0c565b6109a7565b34801561033357600080fd5b5061033c6109cc565b6040516102a39190612d79565b34801561035557600080fd5b506102f9610364366004612dbc565b610a5e565b34801561037557600080fd5b50610389610384366004612b28565b610c35565b6040516001600160a01b0390911681526020016102a3565b3480156103ad57600080fd5b506103c16103bc366004612e31565b610c5e565b005b3480156103cf57600080fd5b506103c16103de366004612e5b565b610c6d565b3480156103ef57600080fd5b506009546102f9565b34801561040457600080fd5b506103c1610413366004612eba565b610cba565b34801561042457600080fd5b506103c1610433366004612faa565b61118b565b34801561044457600080fd5b506012546104559063ffffffff1681565b60405163ffffffff90911681526020016102a3565b34801561047657600080fd5b506103c1610485366004612e5b565b61121b565b34801561049657600080fd5b506104aa6104a5366004612fe6565b611274565b604080516001600160a01b0390931683526020830191909152016102a3565b3480156104d557600080fd5b506102f96104e4366004612e31565b611340565b3480156104f557600080fd5b506103c16113a5565b34801561050a57600080fd5b50601354610389906001600160a01b031681565b34801561052a57600080fd5b506103c1610539366004612faa565b6113b7565b34801561054a57600080fd5b506102f9610559366004612b28565b6113d7565b34801561056a57600080fd5b506103c1610579366004613008565b611430565b34801561058a57600080fd5b50600d5460ff16610297565b3480156105a257600080fd5b5060125461038990600160601b90046001600160a01b031681565b3480156105c957600080fd5b506103896105d8366004612b28565b611481565b3480156105e957600080fd5b506102cc61148c565b3480156105fe57600080fd5b5060125461045590600160401b900463ffffffff1681565b34801561062257600080fd5b506102f9610631366004613008565b611615565b34801561064257600080fd5b506103c161165d565b34801561065757600080fd5b506103c1610666366004613023565b61166f565b34801561067757600080fd5b506103c161176f565b34801561068c57600080fd5b506106a061069b366004612b28565b61177f565b6040516102a3979695949392919061305f565b3480156106bf57600080fd5b50600b546001600160a01b0316610389565b3480156106dd57600080fd5b5061071d6106ec3660046130bb565b80516020818301810180516010825292820191909301209152546001600160801b0380821691600160801b90041682565b604080516001600160801b039384168152929091166020830152016102a3565b34801561074957600080fd5b5061033c61185d565b34801561075e57600080fd5b5060125461045590640100000000900463ffffffff1681565b34801561078357600080fd5b506103c16107923660046130ef565b61186c565b3480156107a357600080fd5b506103c16107b2366004612b28565b611877565b3480156107c357600080fd5b506103c16107d2366004613120565b611902565b6103c16107e5366004612b28565b61191a565b3480156107f657600080fd5b5061033c610805366004612b28565b611bae565b34801561081657600080fd5b506102f9603281565b34801561082b57600080fd5b506102f961271081565b34801561084157600080fd5b5061029761085036600461319b565b611bb9565b34801561086157600080fd5b506103c1610870366004613008565b611be7565b34801561088157600080fd5b506103c1610890366004613008565b611c43565b6000818152600f6020526040812060010154600160e81b900460ff16156108be57506001919050565b6000828152600f60205260409020600101546001600160a01b03166108e283611481565b6001600160a01b0316141592915050565b6060601183836040516109079291906131ce565b908152604080519182900360209081018320805480830285018301909352828452919083018282801561095957602002820191906000526020600020905b815481526020019060010190808311610945575b505050505090505b92915050565b8151602081840181018051601182529282019185019190912091905280548290811061099257600080fd5b90600052602060002001600091509150505481565b60006001600160e01b0319821663152a902d60e11b1480610961575061096182611c7e565b6060600080546109db906131de565b80601f0160208091040260200160405190810160405280929190818152602001828054610a07906131de565b8015610a545780601f10610a2957610100808354040283529160200191610a54565b820191906000526020600020905b815481529060010190602001808311610a3757829003601f168201915b5050505050905090565b6000610a68611ca3565b610a70611cd0565b6001600160a01b0386161580610a8d57506001600160a01b038316155b15610aab5760405163e6c4247b60e01b815260040160405180910390fd5b60125463ffffffff600160401b90910481169083161115610adf576040516318dc18b360e01b815260040160405180910390fd5b600e805460009182610af08361322e565b909155506040805160c08101825260008082526001600160a01b03808916602080850191825263ffffffff808b16868801908152428216606088019081526080880187815260a089018881528b8952600f90955298909620965187546001600160801b03919091166001600160801b03199091161787559251600196909601805493519551975192511515600160e81b0260ff60e81b19931515600160e01b0260ff60e01b19998416600160c01b029990991664ffffffffff60c01b1997909316600160a01b026001600160c01b0319909516979095169690961792909217939093161793909317169190911790559050610beb8782611cf4565b610c2b8187878080601f016020809104026020016040519081016040528093929190818152602001838380828437600092019190915250611d0e92505050565b9695505050505050565b6000610c4082611d5e565b506000828152600460205260409020546001600160a01b0316610961565b610c69828233611d97565b5050565b610c75611ca3565b6107d08163ffffffff161115610c9e576040516318dc18b360e01b815260040160405180910390fd5b6012805463ffffffff191663ffffffff92909216919091179055565b610cc2611ca3565b610cca611cd0565b888781141580610cda5750808614155b80610ce55750808414155b15610d0357604051634ec4810560e11b815260040160405180910390fd5b6032811115610d25576040516305beb17160e11b815260040160405180910390fd5b80600003610d465760405163c2e5347d60e01b815260040160405180910390fd5b600e546000826001600160401b03811115610d6357610d63612c07565b604051908082528060200260200182016040528015610d8c578160200160208202803683370190505b50905060005b838110156110915760008e8e83818110610dae57610dae613247565b9050602002016020810190610dc39190613008565b6001600160a01b03161480610e07575060008a8a83818110610de757610de7613247565b9050602002016020810190610dfc9190613008565b6001600160a01b0316145b15610e255760405163e6c4247b60e01b815260040160405180910390fd5b601254600160401b900463ffffffff16888883818110610e4757610e47613247565b9050602002016020810190610e5c9190612e5b565b63ffffffff161115610e81576040516318dc18b360e01b815260040160405180910390fd5b600e546040805160c081019091526000815290820190602081018c8c85818110610ead57610ead613247565b9050602002016020810190610ec29190613008565b6001600160a01b031681526020018a8a85818110610ee257610ee2613247565b9050602002016020810190610ef79190612e5b565b63ffffffff9081168252428116602080840191909152600060408085018290526060948501829052868252600f835290819020855181546001600160801b0319166001600160801b0390911617815591850151600190920180549186015194860151608087015160a0909701516001600160a01b039094166001600160c01b031990931692909217600160a01b958516959095029490941764ffffffffff60c01b1916600160c01b919093160260ff60e01b191691909117600160e01b931515939093029290921760ff60e81b1916600160e81b921515929092029190911790556110088f8f84818110610fed57610fed613247565b90506020020160208101906110029190613008565b82611cf4565b61106a818e8e8581811061101e5761101e613247565b9050602002810190611030919061325d565b8080601f016020809104026020016040519081016040528093929190818152602001838380828437600092019190915250611d0e92505050565b8083838151811061107d5761107d613247565b602090810291909101015250600101610d92565b50600e8054840190556040805180820182526001600160801b0380861682524216602082015290516010906110c990889088906131ce565b9081526040519081900360209081018220835193909101516001600160801b03908116600160801b02931692909217909155819060119061110d90889088906131ce565b9081526020016040518091039020908051906020019061112e929190612ac8565b508185856040516111409291906131ce565b6040519081900381208582529033907f018c7471476be55c4e4a69e779e8bbe9e042193fd675cd72ba0f3783c67ab4c89060200160405180910390a450505050505050505050505050565b6001600160a01b0382166111ba57604051633250574960e11b8152600060048201526024015b60405180910390fd5b60006111c7838333611da4565b9050836001600160a01b0316816001600160a01b031614611215576040516364283d7b60e01b81526001600160a01b03808616600483015260248201849052821660448201526064016111b1565b50505050565b611223611ca3565b6103e88163ffffffff16111561124c576040516318dc18b360e01b815260040160405180910390fd5b6012805463ffffffff9092166401000000000267ffffffff0000000019909216919091179055565b6000828152600f60209081526040808320815160c08101835281546001600160801b031681526001909101546001600160a01b03811693820184905263ffffffff600160a01b8204811693830193909352600160c01b8104909216606082015260ff600160e01b8304811615156080830152600160e81b909204909116151560a0820152829161130b576000809250925050611339565b80602001519250612710816040015163ffffffff168561132b91906132a3565b61133591906132ba565b9150505b9250929050565b600061134b83611615565b821061137c5760405163295f44f760e21b81526001600160a01b0384166004820152602481018390526044016111b1565b506001600160a01b03919091166000908152600760209081526040808320938352929052205490565b6113ad611ca3565b6113b5611db9565b565b6113d283838360405180602001604052806000815250611902565b505050565b60006113e260095490565b821061140b5760405163295f44f760e21b815260006004820152602481018390526044016111b1565b6009828154811061141e5761141e613247565b90600052602060002001549050919050565b611438611ca3565b6001600160a01b03811661145f5760405163e6c4247b60e01b815260040160405180910390fd5b601380546001600160a01b0319166001600160a01b0392909216919091179055565b600061096182611d5e565b6060600061149960095490565b90506000816001600160401b038111156114b5576114b5612c07565b6040519080825280602002602001820160405280156114de578160200160208202803683370190505b509050600060015b838111611571576000818152600f6020526040902060010154600160e01b900460ff16801561152e57506000818152600f6020526040902060010154600160e81b900460ff16155b1561155f578083838151811061154657611546613247565b60209081029190910101528161155b8161322e565b9250505b806115698161322e565b9150506114e6565b506000816001600160401b0381111561158c5761158c612c07565b6040519080825280602002602001820160405280156115b5578160200160208202803683370190505b50905060005b8281101561160c578381815181106115d5576115d5613247565b60200260200101518282815181106115ef576115ef613247565b6020908102919091010152806116048161322e565b9150506115bb565b50949350505050565b60006001600160a01b038216611641576040516322718ad960e21b8152600060048201526024016111b1565b506001600160a01b031660009081526003602052604090205490565b611665611ca3565b6113b56000611e0b565b3361167983611481565b6001600160a01b0316146116a0576040516359dc379f60e01b815260040160405180910390fd5b806001600160801b03166000036116c95760405162bfc92160e01b815260040160405180910390fd5b6000828152600f602052604090206001810154600160e81b900460ff1615611704576040516364d8436b60e11b815260040160405180910390fd5b80546001600160801b0383166001600160801b03199091168117825560018201805460ff60e01b1916600160e01b17905560405190815283907f1ea85aaf6731daa0c29195039c2a36576fb04e2cd16335504fab8967dfb03f159060200160405180910390a2505050565b611777611ca3565b6113b5611e5d565b6000818152600f60209081526040808320815160c08101835281546001600160801b031681526001909101546001600160a01b0381169382019390935263ffffffff600160a01b8404811692820192909252600160c01b830490911660608281019190915260ff600160e01b8404811615156080840152600160e81b909304909216151560a0820152829182918291829182919061181c89611481565b602082015182516040840151608085015160a086015161183b8f611bae565b959f949e506001600160801b039093169c50909a509850965090945092505050565b6060600180546109db906131de565b610c69338383611e9a565b3361188182611481565b6001600160a01b0316146118a8576040516359dc379f60e01b815260040160405180910390fd5b6000818152600f602052604080822080546001600160801b031916815560018101805460ff60e01b191690559051909183917fe0bba5d0bdeddbcc4ef688b9d8170c81883fb4c4a7065d8970c58b47996dd2d79190a25050565b61190d84848461118b565b6112153385858585611f39565b611922612064565b61192a611cd0565b6000818152600f602052604090206001810154600160e81b900460ff1615611965576040516364d8436b60e11b815260040160405180910390fd5b6001810154600160e01b900460ff166119915760405163037eff1360e21b815260040160405180910390fd5b80546001600160801b031634146119bb5760405163569e8c1160e01b815260040160405180910390fd5b60006119c683611481565b82546012549192506001600160801b031690600090612710906119ef9063ffffffff16846132a3565b6119f991906132ba565b60125490915060009061271090611a1e90640100000000900463ffffffff16856132a3565b611a2891906132ba565b600186015490915060009061271090611a4e90600160a01b900463ffffffff16866132a3565b611a5891906132ba565b905060008183611a6886886132dc565b611a7291906132dc565b611a7c91906132dc565b87546001600160801b031916885560018801805461ffff60e01b1916600160e81b1790559050611aad86338a61208e565b601254611aca90600160601b90046001600160a01b03168561213e565b601354611ae0906001600160a01b03168461213e565b6001870154611af8906001600160a01b03168361213e565b611b02868261213e565b856001600160a01b0316336001600160a01b0316897f704cf6cb1221490022185412a0f82fd80ca9ccf7b5f84482727d0f6924265bd888604051611b4891815260200190565b60405180910390a46001870154604080516001600160a01b0390921682526020820184905289917ff670029fc6f5302baba881b4ae845d1453acdf752b4c19ed81fe0fa6a686409b910160405180910390a250505050505050611bab6001600c55565b50565b6060610961826121b8565b6001600160a01b03918216600090815260056020908152604080832093909416825291909152205460ff1690565b611bef611ca3565b6001600160a01b038116611c165760405163e6c4247b60e01b815260040160405180910390fd5b601280546001600160a01b03909216600160601b026bffffffffffffffffffffffff909216919091179055565b611c4b611ca3565b6001600160a01b038116611c7557604051631e4fbdf760e01b8152600060048201526024016111b1565b611bab81611e0b565b60006001600160e01b0319821663780e9d6360e01b14806109615750610961826122c1565b600b546001600160a01b031633146113b55760405163118cdaa760e01b81523360048201526024016111b1565b600d5460ff16156113b55760405163d93c066560e01b815260040160405180910390fd5b610c698282604051806020016040528060008152506122e6565b6000828152600660205260409020611d268282613335565b506040518281527ff8e1a15aba9398e019f0b49df1a4fde98ee17ae345cb5f6b5e2c27f5033e8ce79060200160405180910390a15050565b6000818152600260205260408120546001600160a01b03168061096157604051637e27328960e01b8152600481018490526024016111b1565b6113d283838360016122fe565b6000611db1848484612404565b949350505050565b611dc16124d1565b600d805460ff191690557f5db9ee0a495bf2e6ff9c91a7834c1ba4fdd244a5e8aa4e537bd38aeae4b073aa335b6040516001600160a01b03909116815260200160405180910390a1565b600b80546001600160a01b038381166001600160a01b0319831681179093556040519116919082907f8be0079c531659141344cd1fd0a4f28419497f9722a3daafe3b4186f6b6457e090600090a35050565b611e65611cd0565b600d805460ff191660011790557f62e78cea01bee320cd4e420270b5ea74000d11b0c9f74754ebdbfc544b05a258611dee3390565b6001600160a01b038216611ecc57604051630b61174360e31b81526001600160a01b03831660048201526024016111b1565b6001600160a01b03838116600081815260056020908152604080832094871680845294825291829020805460ff191686151590811790915591519182527f17307eab39ab6107e8899845ad3d59bd9653f200f220920489ca2b5937696c31910160405180910390a3505050565b6001600160a01b0383163b1561205d57604051630a85bd0160e11b81526001600160a01b0384169063150b7a0290611f7b9088908890879087906004016133f4565b6020604051808303816000875af1925050508015611fb6575060408051601f3d908101601f19168201909252611fb391810190613427565b60015b61201f573d808015611fe4576040519150601f19603f3d011682016040523d82523d6000602084013e611fe9565b606091505b50805160000361201757604051633250574960e11b81526001600160a01b03851660048201526024016111b1565b805160208201fd5b6001600160e01b03198116630a85bd0160e11b1461205b57604051633250574960e11b81526001600160a01b03851660048201526024016111b1565b505b5050505050565b6002600c540361208757604051633ee5aeb560e01b815260040160405180910390fd5b6002600c55565b6001600160a01b0382166120b857604051633250574960e11b8152600060048201526024016111b1565b60006120c683836000611da4565b90506001600160a01b0381166120f257604051637e27328960e01b8152600481018390526024016111b1565b836001600160a01b0316816001600160a01b031614611215576040516364283d7b60e01b81526001600160a01b03808616600483015260248201849052821660448201526064016111b1565b8015610c69576000826001600160a01b03168260405160006040518083038185875af1925050503d8060008114612191576040519150601f19603f3d011682016040523d82523d6000602084013e612196565b606091505b50509050806113d2576040516312171d8360e31b815260040160405180910390fd5b60606121c382611d5e565b50600082815260066020526040812080546121dd906131de565b80601f0160208091040260200160405190810160405280929190818152602001828054612209906131de565b80156122565780601f1061222b57610100808354040283529160200191612256565b820191906000526020600020905b81548152906001019060200180831161223957829003601f168201915b50505050509050600061227460408051602081019091526000815290565b90508051600003612286575092915050565b8151156122b85780826040516020016122a0929190613444565b60405160208183030381529060405292505050919050565b611db1846124f4565b60006001600160e01b03198216632483248360e11b1480610961575061096182612569565b6122f083836125b9565b6113d2336000858585611f39565b808061231257506001600160a01b03821615155b156123d457600061232284611d5e565b90506001600160a01b0383161580159061234e5750826001600160a01b0316816001600160a01b031614155b8015612361575061235f8184611bb9565b155b1561238a5760405163a9fbf51f60e01b81526001600160a01b03841660048201526024016111b1565b81156123d25783856001600160a01b0316826001600160a01b03167f8c5be1e5ebec7d5bd14f71427d1e84f3dd0314c0f7b2291e5b200ac8c7c3b92560405160405180910390a45b505b5050600090815260046020526040902080546001600160a01b0319166001600160a01b0392909216919091179055565b60008061241285858561261e565b90506001600160a01b03811661246f5761246a84600980546000838152600a60205260408120829055600182018355919091527f6e1540171b6c0c960b71a7020d9f60077f6af931a8bbf590da0223dacf75c7af0155565b612492565b846001600160a01b0316816001600160a01b031614612492576124928185612717565b6001600160a01b0385166124ae576124a984612798565b611db1565b846001600160a01b0316816001600160a01b031614611db157611db18585612847565b600d5460ff166113b557604051638dfc202b60e01b815260040160405180910390fd5b60606124ff82611d5e565b50600061251760408051602081019091526000815290565b905060008151116125375760405180602001604052806000815250612562565b8061254184612897565b604051602001612552929190613444565b6040516020818303038152906040525b9392505050565b60006001600160e01b031982166380ac58cd60e01b148061259a57506001600160e01b03198216635b5e139f60e01b145b8061096157506301ffc9a760e01b6001600160e01b0319831614610961565b6001600160a01b0382166125e357604051633250574960e11b8152600060048201526024016111b1565b60006125f183836000611da4565b90506001600160a01b038116156113d2576040516339e3563760e11b8152600060048201526024016111b1565b6000828152600260205260408120546001600160a01b039081169083161561264b5761264b818486612929565b6001600160a01b03811615612689576126686000856000806122fe565b6001600160a01b038116600090815260036020526040902080546000190190555b6001600160a01b038516156126b8576001600160a01b0385166000908152600360205260409020805460010190555b60008481526002602052604080822080546001600160a01b0319166001600160a01b0389811691821790925591518793918516917fddf252ad1be2c89b69c2b068fc378daa952ba7f163c4a11628f55a4df523b3ef91a4949350505050565b600061272283611615565b6000838152600860209081526040808320546001600160a01b038816845260079092529091209192509081831461277957600083815260208281526040808320548584528184208190558352600890915290208290555b6000938452600860209081526040808620869055938552525081205550565b6009546000906127aa906001906132dc565b6000838152600a6020526040812054600980549394509092849081106127d2576127d2613247565b9060005260206000200154905080600983815481106127f3576127f3613247565b6000918252602080832090910192909255828152600a9091526040808220849055858252812055600980548061282b5761282b613473565b6001900381819060005260206000200160009055905550505050565b6000600161285484611615565b61285e91906132dc565b6001600160a01b039093166000908152600760209081526040808320868452825280832085905593825260089052919091209190915550565b606060006128a48361298d565b60010190506000816001600160401b038111156128c3576128c3612c07565b6040519080825280601f01601f1916602001820160405280156128ed576020820181803683370190505b5090508181016020015b600019016f181899199a1a9b1b9c1cb0b131b232b360811b600a86061a8153600a85049450846128f757509392505050565b612934838383612a65565b6113d2576001600160a01b03831661296257604051637e27328960e01b8152600481018290526024016111b1565b60405163177e802f60e01b81526001600160a01b0383166004820152602481018290526044016111b1565b60008072184f03e93ff9f4daa797ed6e38ed64bf6a1f0160401b83106129cc5772184f03e93ff9f4daa797ed6e38ed64bf6a1f0160401b830492506040015b6d04ee2d6d415b85acef810000000083106129f8576d04ee2d6d415b85acef8100000000830492506020015b662386f26fc100008310612a1657662386f26fc10000830492506010015b6305f5e1008310612a2e576305f5e100830492506008015b6127108310612a4257612710830492506004015b60648310612a54576064830492506002015b600a83106109615760010192915050565b60006001600160a01b03831615801590611db15750826001600160a01b0316846001600160a01b03161480612a9f5750612a9f8484611bb9565b80611db15750506000908152600460205260409020546001600160a01b03908116911614919050565b828054828255906000526020600020908101928215612b03579160200282015b82811115612b03578251825591602001919060010190612ae8565b50612b0f929150612b13565b5090565b5b80821115612b0f5760008155600101612b14565b600060208284031215612b3a57600080fd5b5035919050565b60008083601f840112612b5357600080fd5b5081356001600160401b03811115612b6a57600080fd5b60208301915083602082850101111561133957600080fd5b60008060208385031215612b9557600080fd5b82356001600160401b03811115612bab57600080fd5b612bb785828601612b41565b90969095509350505050565b6020808252825182820181905260009190848201906040850190845b81811015612bfb57835183529284019291840191600101612bdf565b50909695505050505050565b634e487b7160e01b600052604160045260246000fd5b60006001600160401b0380841115612c3757612c37612c07565b604051601f8501601f19908116603f01168101908282118183101715612c5f57612c5f612c07565b81604052809350858152868686011115612c7857600080fd5b858560208301376000602087830101525050509392505050565b600082601f830112612ca357600080fd5b61256283833560208501612c1d565b60008060408385031215612cc557600080fd5b82356001600160401b03811115612cdb57600080fd5b612ce785828601612c92565b95602094909401359450505050565b6001600160e01b031981168114611bab57600080fd5b600060208284031215612d1e57600080fd5b813561256281612cf6565b60005b83811015612d44578181015183820152602001612d2c565b50506000910152565b60008151808452612d65816020860160208601612d29565b601f01601f19169290920160200192915050565b6020815260006125626020830184612d4d565b80356001600160a01b0381168114612da357600080fd5b919050565b803563ffffffff81168114612da357600080fd5b600080600080600060808688031215612dd457600080fd5b612ddd86612d8c565b945060208601356001600160401b03811115612df857600080fd5b612e0488828901612b41565b9095509350612e17905060408701612d8c565b9150612e2560608701612da8565b90509295509295909350565b60008060408385031215612e4457600080fd5b612e4d83612d8c565b946020939093013593505050565b600060208284031215612e6d57600080fd5b61256282612da8565b60008083601f840112612e8857600080fd5b5081356001600160401b03811115612e9f57600080fd5b6020830191508360208260051b850101111561133957600080fd5b60008060008060008060008060008060a08b8d031215612ed957600080fd5b8a356001600160401b0380821115612ef057600080fd5b612efc8e838f01612e76565b909c509a5060208d0135915080821115612f1557600080fd5b612f218e838f01612e76565b909a50985060408d0135915080821115612f3a57600080fd5b612f468e838f01612e76565b909850965060608d0135915080821115612f5f57600080fd5b612f6b8e838f01612e76565b909650945060808d0135915080821115612f8457600080fd5b50612f918d828e01612b41565b915080935050809150509295989b9194979a5092959850565b600080600060608486031215612fbf57600080fd5b612fc884612d8c565b9250612fd660208501612d8c565b9150604084013590509250925092565b60008060408385031215612ff957600080fd5b50508035926020909101359150565b60006020828403121561301a57600080fd5b61256282612d8c565b6000806040838503121561303657600080fd5b8235915060208301356001600160801b038116811461305457600080fd5b809150509250929050565b6001600160a01b038881168252871660208201526040810186905263ffffffff85166060820152831515608082015282151560a082015260e060c082018190526000906130ae90830184612d4d565b9998505050505050505050565b6000602082840312156130cd57600080fd5b81356001600160401b038111156130e357600080fd5b611db184828501612c92565b6000806040838503121561310257600080fd5b61310b83612d8c565b91506020830135801515811461305457600080fd5b6000806000806080858703121561313657600080fd5b61313f85612d8c565b935061314d60208601612d8c565b92506040850135915060608501356001600160401b0381111561316f57600080fd5b8501601f8101871361318057600080fd5b61318f87823560208401612c1d565b91505092959194509250565b600080604083850312156131ae57600080fd5b6131b783612d8c565b91506131c560208401612d8c565b90509250929050565b8183823760009101908152919050565b600181811c908216806131f257607f821691505b60208210810361321257634e487b7160e01b600052602260045260246000fd5b50919050565b634e487b7160e01b600052601160045260246000fd5b60006001820161324057613240613218565b5060010190565b634e487b7160e01b600052603260045260246000fd5b6000808335601e1984360301811261327457600080fd5b8301803591506001600160401b0382111561328e57600080fd5b60200191503681900382131561133957600080fd5b808202811582820484141761096157610961613218565b6000826132d757634e487b7160e01b600052601260045260246000fd5b500490565b8181038181111561096157610961613218565b601f8211156113d257600081815260208120601f850160051c810160208610156133165750805b601f850160051c820191505b8181101561205b57828155600101613322565b81516001600160401b0381111561334e5761334e612c07565b6133628161335c84546131de565b846132ef565b602080601f831160018114613397576000841561337f5750858301515b600019600386901b1c1916600185901b17855561205b565b600085815260208120601f198616915b828110156133c6578886015182559484019460019091019084016133a7565b50858210156133e45787850151600019600388901b60f8161c191681555b5050505050600190811b01905550565b6001600160a01b0385811682528416602082015260408101839052608060608201819052600090610c2b90830184612d4d565b60006020828403121561343957600080fd5b815161256281612cf6565b60008351613456818460208801612d29565b83519083019061346a818360208801612d29565b01949350505050565b634e487b7160e01b600052603160045260246000fdfea264697066735822122099c2681d02d4fcb862491010af6ec3094dfded32cff0cbab576d4bdfeeff748d64736f6c63430008140033",
  "linkReferences": {},
  "deployedLinkReferences": {}
}