{
  "_format": "hh-sol-artifact-1",
  "contractName": "NFTCollectionUpgradeable",
  "sourceName": "contracts/NFTCollectionUpgradeable.sol",
  "abi": [
    {
      "inputs": [],
      "stateMutability": "nonpayable",
      "type": "constructor"
    },
    {
      "inputs": [],
      "name": "BatchTooLarge",
      "type": "error"
    },
    {
      "inputs": [],
      "name": "ERC721EnumerableForbiddenBatchMint",
      "type": "error"
    },
    {
      "inputs": [
        {
          "internalType": "address",
          "name": "sender",
          "type": "address"
        },
        {
          "internalType": "uint256",
          "name": "tokenId",
          "type": "uint256"
        },
        {
          "internalType": "address",
          "name": "owner",
          "type": "address"
        }
      ],
      "name": "ERC721IncorrectOwner",
      "type": "error"
    },
    {
      "inputs": [
        {
          "internalType": "address",
          "name": "operator",
          "type": "address"
        },
        {
          "internalType": "uint256",
          "name": "tokenId",
          "type": "uint256"
        }
      ],
      "name": "ERC721InsufficientApproval",
      "type": "error"
    },
    {
      "inputs": [
        {
          "internalType": "address",
          "name": "approver",
          "type": "address"
        }
      ],
      "name": "ERC721InvalidApprover",
      "type": "error"
    },
    {
      "inputs": [
        {
          "internalType": "address",
          "name": "operator",
          "type": "address"
        }
      ],
      "name": "ERC721InvalidOperator",
      "type": "error"
    },
    {
      "inputs": [
        {
          "internalType": "address",
          "name": "owner",
          "type": "address"
        }
      ],
      "name": "ERC721InvalidOwner",
      "type": "error"
    },
    {
      "inputs": [
        {
          "internalType": "address",
          "name": "receiver",
          "type": "address"
        }
      ],
      "name": "ERC721InvalidReceiver",
      "type": "error"
    },
    {
      "inputs": [
        {
          "internalType": "address",
          "name": "sender",
          "type": "address"
        }
      ],
      "name": "ERC721InvalidSender",
      "type": "error"
    },
    {
      "inputs": [
        {
          "internalType": "uint256",
          "name": "tokenId",
          "type": "uint256"
        }
      ],
      "name": "ERC721NonexistentToken",
      "type": "error"
    },
    {
      "inputs": [
        {
          "internalType": "address",
          "name": "owner",
          "type": "address"
        },
        {
          "internalType": "uint256",
          "name": "index",
          "type": "uint256"
        }
      ],
      "name": "ERC721OutOfBoundsIndex",
      "type": "error"
    },
    {
      "inputs": [],
      "name": "EmptyBatch",
      "type": "error"
    },
    {
      "inputs": [],
      "name": "EnforcedPause",
      "type": "error"
    },
    {
      "inputs": [],
      "name": "ExpectedPause",
      "type": "error"
    },
    {
      "inputs": [],
      "name": "IncorrectPayment",
      "type": "error"
    },
    {
      "inputs": [],
      "name": "InvalidAddress",
      "type": "error"
    },
    {
      "inputs": [],
      "name": "InvalidArrayLength",
      "type": "error"
    },
    {
      "inputs": [],
      "name": "InvalidInitialization",
      "type": "error"
    },
    {
      "inputs": [],
      "name": "InvalidPrice",
      "type": "error"
    },
    {
      "inputs": [],
      "name": "NotInitializing",
      "type": "error"
    },
    {
      "inputs": [],
      "name": "NotTokenOwner",
      "type": "error"
    },
    {
      "inputs": [
        {
          "internalType": "address",
          "name": "owner",
          "type": "address"
        }
      ],
      "name": "OwnableInvalidOwner",
      "type": "error"
    },
    {
      "inputs": [
        {
          "internalType": "address",
          "name": "account",
          "type": "address"
        }
      ],
      "name": "OwnableUnauthorizedAccount",
      "type": "error"
    },
    {
      "inputs": [],
      "name": "ReentrancyGuardReentrantCall",
      "type": "error"
    },
    {
      "inputs": [],
      "name": "TokenAlreadySold",
      "type": "error"
    },
    {
      "inputs": [],
      "name": "TokenNotForSale",
      "type": "error"
    },
    {
      "inputs": [],
      "name": "TransferFailed",
      "type": "error"
    },
    {
      "inputs": [],
      "name": "ValueTooHigh",
      "type": "error"
    },
    {
      "anonymous": false,
      "inputs": [
        {
          "indexed": true,
          "internalType": "address",
          "name": "owner",
          "type": "address"
        },
        {
          "indexed": true,
          "internalType": "address",
          "name": "approved",
          "type": "address"
        },
        {
          "indexed": true,
          "internalType": "uint256",
          "name": "tokenId",
          "type": "uint256"
        }
      ],
      "name": "Approval",
      "type": "event"
    },
    {
      "anonymous": false,
      "inputs": [
        {
          "indexed": true,
          "internalType": "address",
          "name": "owner",
          "type": "address"
        },
        {
          "indexed": true,
          "internalType": "address",
          "name": "operator",
          "type": "address"
        },
        {
          "indexed": false,
          "internalType": "bool",
          "name": "approved",
          "type": "bool"
        }
      ],
      "name": "ApprovalForAll",
      "type": "event"
    },
    {
      "anonymous": false,
      "inputs": [
        {
          "indexed": false,
          "internalType": "uint256",
          "name": "_fromTokenId",
          "type": "uint256"
        },
        {
          "indexed": false,
          "internalType": "uint256",
          "name": "_toTokenId",
          "type": "uint256"
        }
      ],
      "name": "BatchMetadataUpdate",
      "type": "event"
    },
    {
      "anonymous": false,
      "inputs": [
        {
          "indexed": true,
          "internalType": "address",
          "name": "minter",
          "type": "address"
        },
        {
          "indexed": true,
          "internalType": "string",
          "name": "batchId",
          "type": "string"
        },
        {
          "indexed": true,
          "internalType": "uint256",
          "name": "startTokenId",
          "type": "uint256"
        },
        {
          "indexed": false,
          "internalType": "uint256",
          "name": "count",
          "type": "uint256"
        }
      ],
      "name": "BatchMinted",
      "type": "event"
    },
    {
      "anonymous": false,
      "inputs": [
        {
          "indexed": true,
          "internalType": "address",
          "name": "buyer",
          "type": "address"
        },
        {
          "indexed": true,
          "internalType": "uint256",
          "name": "tokenId",
          "type": "uint256"
        }
      ],
      "name": "DoubleSaleAttempt",
      "type": "event"
    },
    {
      "anonymous": false,
      "inputs": [
        {
          "indexed": false,
          "internalType": "uint64",
          "name": "version",
          "type": "uint64"
        }
      ],
      "name": "Initialized",
      "type": "event"
    },
    {
      "anonymous": false,
      "inputs": [
        {
          "indexed": false,
          "internalType": "uint256",
          "name": "_tokenId",
          "type": "uint256"
        }
      ],
      "name": "MetadataUpdate",
      "type": "event"
    },
    {
      "anonymous": false,
      "inputs": [
        {
          "indexed": true,
          "internalType": "address",
          "name": "previousOwner",
          "type": "address"
        },
        {
          "indexed": true,
          "internalType": "address",
          "name": "newOwner",
          "type": "address"
        }
      ],
      "name": "OwnershipTransferred",
      "type": "event"
    },
    {
      "anonymous": false,
      "inputs": [
        {
          "indexed": false,
          "internalType": "address",
          "name": "account",
          "type": "address"
        }
      ],
      "name": "Paused",
      "type": "event"
    },
    {
      "anonymous": false,
      "inputs": [
        {
          "indexed": true,
          "internalType": "uint256",
          "name": "tokenId",
          "type": "uint256"
        },
        {
          "indexed": false,
          "internalType": "address",
          "name": "artist",
          "type": "address"
        },
        {
          "indexed": false,
          "internalType": "uint256",
          "name": "amount",
          "type": "uint256"
        }
      ],
      "name": "RoyaltyPaid",
      "type": "event"
    },
    {
      "anonymous": false,
      "inputs": [
        {
          "indexed": true,
          "internalType": "uint256",
          "name": "tokenId",
          "type": "uint256"
        },
        {
          "indexed": false,
          "internalType": "uint256",
          "name": "price",
          "type": "uint256"
        }
      ],
      "name": "TokenListed",
      "type": "event"
    },
    {
      "anonymous": false,
      "inputs": [
        {
          "indexed": true,
          "internalType": "uint256",
          "name": "tokenId",
          "type": "uint256"
        },
        {
          "indexed": true,
          "internalType": "address",
          "name": "buyer",
          "type": "address"
        },
        {
          "indexed": true,
          "internalType": "address",
          "name": "seller",
          "type": "address"
        },
        {
          "indexed": false,
          "internalType": "uint256",
          "name": "price",
          "type": "uint256"
        }
      ],
      "name": "TokenPurchased",
      "type": "event"
    },
    {
      "anonymous": false,
      "inputs": [
        {
          "indexed": true,
          "internalType": "uint256",
          "name": "tokenId",
          "type": "uint256"
        }
      ],
      "name": "TokenUnlisted",
      "type": "event"
    },
    {
      "anonymous": false,
      "inputs": [
        {
          "indexed": true,
          "internalType": "address",
          "name": "from",
          "type": "address"
        },
        {
          "indexed": true,
          "internalType": "address",
          "name": "to",
          "type": "address"
        },
        {
          "indexed": true,
          "internalType": "uint256",
          "name": "tokenId",
          "type": "uint256"
        }
      ],
      "name": "Transfer",
      "type": "event"
    },
    {
      "anonymous": false,
      "inputs": [
        {
          "indexed": false,
          "internalType": "address",
          "name": "account",
          "type": "address"
        }
      ],
      "name": "Unpaused",
      "type": "event"
    },
    {
      "inputs": [],
      "name": "BASIS_POINTS",
      "outputs": [
        {
          "internalType": "uint256",
          "name": "",
          "type": "uint256"
        }
      ],
      "stateMutability": "view",
      "type": "function"
    },
    {
      "inputs": [],
      "name": "MAX_BATCH_SIZE",
      "outputs": [
        {
          "internalType": "uint256",
          "name": "",
          "type": "uint256"
        }
      ],
      "stateMutability": "view",
      "type": "function"
    },
    {
      "inputs": [
        {
          "internalType": "address",
          "name": "to",
          "type": "address"
        },
        {
          "internalType": "uint256",
          "name": "tokenId",
          "type": "uint256"
        }
      ],
      "name": "approve",
      "outputs": [],
      "stateMutability": "nonpayable",
      "type": "function"
    },
    {
      "inputs": [
        {
          "internalType": "address",
          "name": "owner",
          "type": "address"
        }
      ],
      "name": "balanceOf",
      "outputs": [
        {
          "internalType": "uint256",
          "name": "",
          "type": "uint256"
        }
      ],
      "stateMutability": "view",
      "type": "function"
    },
    {
      "inputs": [
        {
          "internalType": "string",
          "name": "",
          "type": "string"
        }
      ],
      "name": "batchInfo",
      "outputs": [
        {
          "internalType": "uint128",
          "name": "totalTokens",
          "type": "uint128"
        },
        {
          "internalType": "uint128",
          "name": "timestamp",
          "type": "uint128"
        }
      ],
      "stateMutability": "view",
      "type": "function"
    },
    {
      "inputs": [
        {
          "internalType": "address[]",
          "name": "recipients",
          "type": "address[]"
        },
        {
          "internalType": "string[]",
          "name": "tokenURIs",
          "type": "string[]"
        },
        {
          "internalType": "address[]",
          "name": "artists",
          "type": "address[]"
        },
        {
          "internalType": "uint32[]",
          "name": "royalties",
          "type": "uint32[]"
        },
        {
          "internalType": "string",
          "name": "batchId",
          "type": "string"
        }
      ],
      "name": "batchMint",
      "outputs": [],
      "stateMutability": "nonpayable",
      "type": "function"
    },
    {
      "inputs": [
        {
          "internalType": "string",
          "name": "",
          "type": "string"
        },
        {
          "internalType": "uint256",
          "name": "",
          "type": "uint256"
        }
      ],
      "name": "batchTokenIds",
      "outputs": [
        {
          "internalType": "uint256",
          "name": "",
          "type": "uint256"
        }
      ],
      "stateMutability": "view",
      "type": "function"
    },
    {
      "inputs": [],
      "name": "galleryFee",
      "outputs": [
        {
          "internalType": "uint32",
          "name": "",
          "type": "uint32"
        }
      ],
      "stateMutability": "view",
      "type": "function"
    },
    {
      "inputs": [],
      "name": "galleryWallet",
      "outputs": [
        {
          "internalType": "address",
          "name": "",
          "type": "address"
        }
      ],
      "stateMutability": "view",
      "type": "function"
    },
    {
      "inputs": [
        {
          "internalType": "uint256",
          "name": "tokenId",
          "type": "uint256"
        }
      ],
      "name": "getApproved",
      "outputs": [
        {
          "internalType": "address",
          "name": "",
          "type": "address"
        }
      ],
      "stateMutability": "view",
      "type": "function"
    },
    {
      "inputs": [
        {
          "internalType": "string",
          "name": "batchId",
          "type": "string"
        }
      ],
      "name": "getBatchTokens",
      "outputs": [
        {
          "internalType": "uint256[]",
          "name": "",
          "type": "uint256[]"
        }
      ],
      "stateMutability": "view",
      "type": "function"
    },
    {
      "inputs": [
        {
          "internalType": "uint256",
          "name": "tokenId",
          "type": "uint256"
        }
      ],
      "name": "getTokenInfo",
      "outputs": [
        {
          "internalType": "address",
          "name": "owner",
          "type": "address"
        },
        {
          "internalType": "address",
          "name": "artist",
          "type": "address"
        },
        {
          "internalType": "uint256",
          "name": "price",
          "type": "uint256"
        },
        {
          "internalType": "uint32",
          "name": "royalty",
          "type": "uint32"
        },
        {
          "internalType": "bool",
          "name": "forSale",
          "type": "bool"
        },
        {
          "internalType": "bool",
          "name": "sold",
          "type": "bool"
        },
        {
          "internalType": "string",
          "name": "uri",
          "type": "string"
        }
      ],
      "stateMutability": "view",
      "type": "function"
    },
    {
      "inputs": [],
      "name": "getTokensForSale",
      "outputs": [
        {
          "internalType": "uint256[]",
          "name": "",
          "type": "uint256[]"
        }
      ],
      "stateMutability": "view",
      "type": "function"
    },
    {
      "inputs": [
        {
          "internalType": "string",
          "name": "name",
          "type": "string"
        },
        {
          "internalType": "string",
          "name": "symbol",
          "type": "string"
        },
        {
          "internalType": "address",
          "name": "_treasury",
          "type": "address"
        },
        {
          "internalType": "address",
          "name": "_galleryWallet",
          "type": "address"
        },
        {
          "internalType": "address",
          "name": "_owner",
          "type": "address"
        },
        {
          "internalType": "uint32",
          "name": "_artistRoyalty",
          "type": "uint32"
        }
      ],
      "name": "initialize",
      "outputs": [],
      "stateMutability": "nonpayable",
      "type": "function"
    },
    {
      "inputs": [
        {
          "internalType": "address",
          "name": "owner",
          "type": "address"
        },
        {
          "internalType": "address",
          "name": "operator",
          "type": "address"
        }
      ],
      "name": "isApprovedForAll",
      "outputs": [
        {
          "internalType": "bool",
          "name": "",
          "type": "bool"
        }
      ],
      "stateMutability": "view",
      "type": "function"
    },
    {
      "inputs": [
        {
          "internalType": "uint256",
          "name": "tokenId",
          "type": "uint256"
        }
      ],
      "name": "isSold",
      "outputs": [
        {
          "internalType": "bool",
          "name": "",
          "type": "bool"
        }
      ],
      "stateMutability": "view",
      "type": "function"
    },
    {
      "inputs": [
        {
          "internalType": "uint256",
          "name": "tokenId",
          "type": "uint256"
        },
        {
          "internalType": "uint128",
          "name": "price",
          "type": "uint128"
        }
      ],
      "name": "listToken",
      "outputs": [],
      "stateMutability": "nonpayable",
      "type": "function"
    },
    {
      "inputs": [],
      "name": "maxRoyalty",
      "outputs": [
        {
          "internalType": "uint32",
          "name": "",
          "type": "uint32"
        }
      ],
      "stateMutability": "view",
      "type": "function"
    },
    {
      "inputs": [
        {
          "internalType": "address",
          "name": "recipient",
          "type": "address"
        },
        {
          "internalType": "string",
          "name": "uri",
          "type": "string"
        },
        {
          "internalType": "address",
          "name": "artist",
          "type": "address"
        },
        {
          "internalType": "uint32",
          "name": "royalty",
          "type": "uint32"
        }
      ],
      "name": "mintNFT",
      "outputs": [
        {
          "internalType": "uint256",
          "name": "",
          "type": "uint256"
        }
      ],
      "stateMutability": "nonpayable",
      "type": "function"
    },
    {
      "inputs": [],
      "name": "name",
      "outputs": [
        {
          "internalType": "string",
          "name": "",
          "type": "string"
        }
      ],
      "stateMutability": "view",
      "type": "function"
    },
    {
      "inputs": [],
      "name": "owner",
      "outputs": [
        {
          "internalType": "address",
          "name": "",
          "type": "address"
        }
      ],
      "stateMutability": "view",
      "type": "function"
    },
    {
      "inputs": [
        {
          "internalType": "uint256",
          "name": "tokenId",
          "type": "uint256"
        }
      ],
      "name": "ownerOf",
      "outputs": [
        {
          "internalType": "address",
          "name": "",
          "type": "address"
        }
      ],
      "stateMutability": "view",
      "type": "function"
    },
    {
      "inputs": [],
      "name": "pause",
      "outputs": [],
      "stateMutability": "nonpayable",
      "type": "function"
    },
    {
      "inputs": [],
      "name": "paused",
      "outputs": [
        {
          "internalType": "bool",
          "name": "",
          "type": "bool"
        }
      ],
      "stateMutability": "view",
      "type": "function"
    },
    {
      "inputs": [],
      "name": "platformFee",
      "outputs": [
        {
          "internalType": "uint32",
          "name": "",
          "type": "uint32"
        }
      ],
      "stateMutability": "view",
      "type": "function"
    },
    {
      "inputs": [
        {
          "internalType": "uint256",
          "name": "tokenId",
          "type": "uint256"
        }
      ],
      "name": "purchaseToken",
      "outputs": [],
      "stateMutability": "payable",
      "type": "function"
    },
    {
      "inputs": [],
      "name": "renounceOwnership",
      "outputs": [],
      "stateMutability": "nonpayable",
      "type": "function"
    },
    {
      "inputs": [
        {
          "internalType": "uint256",
          "name": "tokenId",
          "type": "uint256"
        },
        {
          "internalType": "uint256",
          "name": "salePrice",
          "type": "uint256"
        }
      ],
      "name": "royaltyInfo",
      "outputs": [
        {
          "internalType": "address",
          "name": "receiver",
          "type": "address"
        },
        {
          "internalType": "uint256",
          "name": "royaltyAmount",
          "type": "uint256"
        }
      ],
      "stateMutability": "view",
      "type": "function"
    },
    {
      "inputs": [
        {
          "internalType": "address",
          "name": "from",
          "type": "address"
        },
        {
          "internalType": "address",
          "name": "to",
          "type": "address"
        },
        {
          "internalType": "uint256",
          "name": "tokenId",
          "type": "uint256"
        }
      ],
      "name": "safeTransferFrom",
      "outputs": [],
      "stateMutability": "nonpayable",
      "type": "function"
    },
    {
      "inputs": [
        {
          "internalType": "address",
          "name": "from",
          "type": "address"
        },
        {
          "internalType": "address",
          "name": "to",
          "type": "address"
        },
        {
          "internalType": "uint256",
          "name": "tokenId",
          "type": "uint256"
        },
        {
          "internalType": "bytes",
          "name": "data",
          "type": "bytes"
        }
      ],
      "name": "safeTransferFrom",
      "outputs": [],
      "stateMutability": "nonpayable",
      "type": "function"
    },
    {
      "inputs": [
        {
          "internalType": "address",
          "name": "operator",
          "type": "address"
        },
        {
          "internalType": "bool",
          "name": "approved",
          "type": "bool"
        }
      ],
      "name": "setApprovalForAll",
      "outputs": [],
      "stateMutability": "nonpayable",
      "type": "function"
    },
    {
      "inputs": [
        {
          "internalType": "uint32",
          "name": "_galleryFee",
          "type": "uint32"
        }
      ],
      "name": "setGalleryFee",
      "outputs": [],
      "stateMutability": "nonpayable",
      "type": "function"
    },
    {
      "inputs": [
        {
          "internalType": "address",
          "name": "_galleryWallet",
          "type": "address"
        }
      ],
      "name": "setGalleryWallet",
      "outputs": [],
      "stateMutability": "nonpayable",
      "type": "function"
    },
    {
      "inputs": [
        {
          "internalType": "uint32",
          "name": "_platformFee",
          "type": "uint32"
        }
      ],
      "name": "setPlatformFee",
      "outputs": [],
      "stateMutability": "nonpayable",
      "type": "function"
    },
    {
      "inputs": [
        {
          "internalType": "address",
          "name": "_treasury",
          "type": "address"
        }
      ],
      "name": "setTreasury",
      "outputs": [],
      "stateMutability": "nonpayable",
      "type": "function"
    },
    {
      "inputs": [
        {
          "internalType": "bytes4",
          "name": "interfaceId",
          "type": "bytes4"
        }
      ],
      "name": "supportsInterface",
      "outputs": [
        {
          "internalType": "bool",
          "name": "",
          "type": "bool"
        }
      ],
      "stateMutability": "view",
      "type": "function"
    },
    {
      "inputs": [],
      "name": "symbol",
      "outputs": [
        {
          "internalType": "string",
          "name": "",
          "type": "string"
        }
      ],
      "stateMutability": "view",
      "type": "function"
    },
    {
      "inputs": [
        {
          "internalType": "uint256",
          "name": "index",
          "type": "uint256"
        }
      ],
      "name": "tokenByIndex",
      "outputs": [
        {
          "internalType": "uint256",
          "name": "",
          "type": "uint256"
        }
      ],
      "stateMutability": "view",
      "type": "function"
    },
    {
      "inputs": [
        {
          "internalType": "address",
          "name": "owner",
          "type": "address"
        },
        {
          "internalType": "uint256",
          "name": "index",
          "type": "uint256"
        }
      ],
      "name": "tokenOfOwnerByIndex",
      "outputs": [
        {
          "internalType": "uint256",
          "name": "",
          "type": "uint256"
        }
      ],
      "stateMutability": "view",
      "type": "function"
    },
    {
      "inputs": [
        {
          "internalType": "uint256",
          "name": "tokenId",
          "type": "uint256"
        }
      ],
      "name": "tokenURI",
      "outputs": [
        {
          "internalType": "string",
          "name": "",
          "type": "string"
        }
      ],
      "stateMutability": "view",
      "type": "function"
    },
    {
      "inputs": [],
      "name": "totalSupply",
      "outputs": [
        {
          "internalType": "uint256",
          "name": "",
          "type": "uint256"
        }
      ],
      "stateMutability": "view",
      "type": "function"
    },
    {
      "inputs": [
        {
          "internalType": "address",
          "name": "from",
          "type": "address"
        },
        {
          "internalType": "address",
          "name": "to",
          "type": "address"
        },
        {
          "internalType": "uint256",
          "name": "tokenId",
          "type": "uint256"
        }
      ],
      "name": "transferFrom",
      "outputs": [],
      "stateMutability": "nonpayable",
      "type": "function"
    },
    {
      "inputs": [
        {
          "internalType": "address",
          "name": "newOwner",
          "type": "address"
        }
      ],
      "name": "transferOwnership",
      "outputs": [],
      "stateMutability": "nonpayable",
      "type": "function"
    },
    {
      "inputs": [],
      "name": "treasury",
      "outputs": [
        {
          "internalType": "address",
          "name": "",
          "type": "address"
        }
      ],
      "stateMutability": "view",
      "type": "function"
    },
    {
      "inputs": [
        {
          "internalType": "uint256",
          "name": "tokenId",
          "type": "uint256"
        }
      ],
      "name": "unlistToken",
      "outputs": [],
      "stateMutability": "nonpayable",
      "type": "function"
    },
    {
      "inputs": [],
      "name": "unpause",
      "outputs": [],
      "stateMutability": "nonpayable",
      "type": "function"
    }
  ],
  "bytecode": "0x60806040523480156200001157600080fd5b506200001c62000022565b620000d6565b7ff0c57e16840df040f15088dc2f81fe391c3923bec73e23a9662efc9c229c6a00805468010000000000000000900460ff1615620000735760405163f92ee8a960e01b815260040160405180910390fd5b80546001600160401b0390811614620000d35780546001600160401b0319166001600160401b0390811782556040519081527fc7f505b2f371ae2175ee4913f4499e1f2633a7b5936321eed1cdaeb6115181d29060200160405180910390a15b50565b613c7180620000e66000396000f3fe60806040526004361061027d5760003560e01c80636352211e1161014f57806395d89b41116100c1578063c87b56dd1161007a578063c87b56dd1461084e578063cfdbf2541461086e578063e1f1c4a714610883578063e985e9c514610899578063f0f44260146108b9578063f2fde38b146108d957600080fd5b806395d89b41146107a157806399fe6162146107b6578063a22cb465146107db578063ad3a358c146107fb578063b88d4fde1461081b578063c2db2c421461083b57600080fd5b806372f0e22b1161011357806372f0e22b1461067057806375b0ec14146106905780638456cb59146106b05780638c7a63ae146106c55780638da5cb5b146106f8578063957d2e691461073557600080fd5b80636352211e146105e257806365e4e1c014610602578063674a12c71461061757806370a082311461063b578063715018a61461065b57600080fd5b806323b872dd116101f357806340b93a06116101ac57806340b93a061461051657806342842e0e146105365780634f6ccce71461055657806355dfa7a8146105765780635c975abb1461059657806361d027b3146105bb57600080fd5b806323b872dd1461043057806326232a2e14610450578063284e77da146104825780632a55205a146104a25780632f745c59146104e15780633f4ba83a1461050157600080fd5b8063071871b111610245578063071871b114610354578063081812fc14610374578063095ea7b3146103ac578063146fbb79146103ce57806318160ddd146103ee5780631cfa581e1461041057600080fd5b80630110a1761461028257806301202f7d146102b757806301ea70e0146102e457806301ffc9a71461031257806306fdde0314610332575b600080fd5b34801561028e57600080fd5b506102a261029d3660046131b6565b6108f9565b60405190151581526020015b60405180910390f35b3480156102c357600080fd5b506102d76102d2366004613210565b610958565b6040516102ae9190613251565b3480156102f057600080fd5b506103046102ff366004613340565b6109cc565b6040519081526020016102ae565b34801561031e57600080fd5b506102a261032d36600461339a565b610a0c565b34801561033e57600080fd5b50610347610a31565b6040516102ae9190613407565b34801561036057600080fd5b5061030461036f36600461344a565b610ad5565b34801561038057600080fd5b5061039461038f3660046131b6565b610cac565b6040516001600160a01b0390911681526020016102ae565b3480156103b857600080fd5b506103cc6103c73660046134bf565b610cc1565b005b3480156103da57600080fd5b506103cc6103e93660046134e9565b610cd0565b3480156103fa57600080fd5b50600080516020613bfc83398151915254610304565b34801561041c57600080fd5b506103cc61042b366004613548565b610d1d565b34801561043c57600080fd5b506103cc61044b366004613638565b6111ed565b34801561045c57600080fd5b5060045461046d9063ffffffff1681565b60405163ffffffff90911681526020016102ae565b34801561048e57600080fd5b506103cc61049d3660046134e9565b61127d565b3480156104ae57600080fd5b506104c26104bd366004613674565b6112d6565b604080516001600160a01b0390931683526020830191909152016102ae565b3480156104ed57600080fd5b506103046104fc3660046134bf565b61139e565b34801561050d57600080fd5b506103cc611412565b34801561052257600080fd5b50600554610394906001600160a01b031681565b34801561054257600080fd5b506103cc610551366004613638565b611424565b34801561056257600080fd5b506103046105713660046131b6565b611444565b34801561058257600080fd5b506103cc610591366004613696565b6114bc565b3480156105a257600080fd5b50600080516020613c1c8339815191525460ff166102a2565b3480156105c757600080fd5b5060045461039490600160601b90046001600160a01b031681565b3480156105ee57600080fd5b506103946105fd3660046131b6565b61150d565b34801561060e57600080fd5b506102d7611518565b34801561062357600080fd5b5060045461046d90600160401b900463ffffffff1681565b34801561064757600080fd5b50610304610656366004613696565b6116b0565b34801561066757600080fd5b506103cc61170c565b34801561067c57600080fd5b506103cc61068b3660046136b1565b61171e565b34801561069c57600080fd5b506103cc6106ab3660046136ed565b611820565b3480156106bc57600080fd5b506103cc611a3b565b3480156106d157600080fd5b506106e56106e03660046131b6565b611a4b565b6040516102ae9796959493929190613791565b34801561070457600080fd5b507f9016d09d72d40fdae2fd8ceac6b6234c7706214fd39c1cd1e609a0528c199300546001600160a01b0316610394565b34801561074157600080fd5b506107816107503660046137ed565b80516020818301810180516002825292820191909301209152546001600160801b0380821691600160801b90041682565b604080516001600160801b039384168152929091166020830152016102ae565b3480156107ad57600080fd5b50610347611b23565b3480156107c257600080fd5b5060045461046d90640100000000900463ffffffff1681565b3480156107e757600080fd5b506103cc6107f6366004613821565b611b62565b34801561080757600080fd5b506103cc6108163660046131b6565b611b6d565b34801561082757600080fd5b506103cc610836366004613852565b611bf8565b6103cc6108493660046131b6565b611c10565b34801561085a57600080fd5b506103476108693660046131b6565b611f01565b34801561087a57600080fd5b50610304603281565b34801561088f57600080fd5b5061030461271081565b3480156108a557600080fd5b506102a26108b43660046138cd565b611f0c565b3480156108c557600080fd5b506103cc6108d4366004613696565b611f59565b3480156108e557600080fd5b506103cc6108f4366004613696565b611fb5565b600081815260016020819052604082200154600160e81b900460ff161561092257506001919050565b600082815260016020819052604090912001546001600160a01b03166109478361150d565b6001600160a01b0316141592915050565b60606003838360405161096c929190613900565b90815260408051918290036020908101832080548083028501830190935282845291908301828280156109be57602002820191906000526020600020905b8154815260200190600101908083116109aa575b505050505090505b92915050565b815160208184018101805160038252928201918501919091209190528054829081106109f757600080fd5b90600052602060002001600091509150505481565b60006001600160e01b0319821663152a902d60e11b14806109c657506109c682611ff0565b600080516020613bdc8339815191528054606091908190610a5190613910565b80601f0160208091040260200160405190810160405280929190818152602001828054610a7d90613910565b8015610aca5780601f10610a9f57610100808354040283529160200191610aca565b820191906000526020600020905b815481529060010190602001808311610aad57829003601f168201915b505050505091505090565b6000610adf612015565b610ae7612070565b6001600160a01b0386161580610b0457506001600160a01b038316155b15610b225760405163e6c4247b60e01b815260040160405180910390fd5b60045463ffffffff600160401b90910481169083161115610b56576040516318dc18b360e01b815260040160405180910390fd5b600080548180610b6583613960565b909155506040805160c08101825260008082526001600160a01b03808916602080850191825263ffffffff808b16868801908152428216606088019081526080880187815260a089018881528b895260019586905299909720975188546001600160801b03919091166001600160801b0319909116178855935196909201805492519351955197511515600160e81b0260ff60e81b19981515600160e01b0260ff60e01b19978416600160c01b029790971664ffffffffff60c01b1995909316600160a01b026001600160c01b0319909416979095169690961791909117919091161791909117929092169190911790559050610c6287826120a1565b610ca28187878080601f0160208091040260200160405190810160405280939291908181526020018383808284376000920191909152506120bb92505050565b9695505050505050565b6000610cb78261212e565b506109c682612166565b610ccc8282336121a0565b5050565b610cd8612015565b6107d08163ffffffff161115610d01576040516318dc18b360e01b815260040160405180910390fd5b6004805463ffffffff191663ffffffff92909216919091179055565b610d25612015565b610d2d612070565b888781141580610d3d5750808614155b80610d485750808414155b15610d6657604051634ec4810560e11b815260040160405180910390fd5b6032811115610d88576040516305beb17160e11b815260040160405180910390fd5b80600003610da95760405163c2e5347d60e01b815260040160405180910390fd5b6000805490826001600160401b03811115610dc657610dc6613295565b604051908082528060200260200182016040528015610def578160200160208202803683370190505b50905060005b838110156110f35760008e8e83818110610e1157610e11613979565b9050602002016020810190610e269190613696565b6001600160a01b03161480610e6a575060008a8a83818110610e4a57610e4a613979565b9050602002016020810190610e5f9190613696565b6001600160a01b0316145b15610e885760405163e6c4247b60e01b815260040160405180910390fd5b600454600160401b900463ffffffff16888883818110610eaa57610eaa613979565b9050602002016020810190610ebf91906134e9565b63ffffffff161115610ee4576040516318dc18b360e01b815260040160405180910390fd5b600080546040805160c08101909152918252820190602081018c8c85818110610f0f57610f0f613979565b9050602002016020810190610f249190613696565b6001600160a01b031681526020018a8a85818110610f4457610f44613979565b9050602002016020810190610f5991906134e9565b63ffffffff9081168252428116602080840191909152600060408085018290526060948501829052868252600180845291819020865181546001600160801b0319166001600160801b03909116178155928601519290910180549186015194860151608087015160a0909701516001600160a01b039094166001600160c01b031990931692909217600160a01b958516959095029490941764ffffffffff60c01b1916600160c01b919093160260ff60e01b191691909117600160e01b931515939093029290921760ff60e81b1916600160e81b9215159290920291909117905561106a8f8f8481811061104f5761104f613979565b90506020020160208101906110649190613696565b826120a1565b6110cc818e8e8581811061108057611080613979565b9050602002810190611092919061398f565b8080601f0160208091040260200160405190810160405280939291908181526020018383808284376000920191909152506120bb92505050565b808383815181106110df576110df613979565b602090810291909101015250600101610df5565b5060008054840190556040805180820182526001600160801b03808616825242166020820152905160029061112b9088908890613900565b9081526040519081900360209081018220835193909101516001600160801b03908116600160801b02931692909217909155819060039061116f9088908890613900565b90815260200160405180910390209080519060200190611190929190613156565b508185856040516111a2929190613900565b6040519081900381208582529033907f018c7471476be55c4e4a69e779e8bbe9e042193fd675cd72ba0f3783c67ab4c89060200160405180910390a450505050505050505050505050565b6001600160a01b03821661121c57604051633250574960e11b8152600060048201526024015b60405180910390fd5b60006112298383336121ad565b9050836001600160a01b0316816001600160a01b031614611277576040516364283d7b60e01b81526001600160a01b0380861660048301526024820184905282166044820152606401611213565b50505050565b611285612015565b6103e88163ffffffff1611156112ae576040516318dc18b360e01b815260040160405180910390fd5b6004805463ffffffff9092166401000000000267ffffffff0000000019909216919091179055565b6000828152600160208181526040808420815160c08101835281546001600160801b031681529301546001600160a01b03811692840183905263ffffffff600160a01b8204811692850192909252600160c01b8104909116606084015260ff600160e01b8204811615156080850152600160e81b90910416151560a0830152829190611369576000809250925050611397565b80602001519250612710816040015163ffffffff168561138991906139d5565b61139391906139ec565b9150505b9250929050565b6000600080516020613bbc8339815191526113b8846116b0565b83106113e95760405163295f44f760e21b81526001600160a01b038516600482015260248101849052604401611213565b6001600160a01b0384166000908152602091825260408082208583529092522054905092915050565b61141a612015565b6114226121c2565b565b61143f83838360405180602001604052806000815250611bf8565b505050565b6000600080516020613bbc83398151915261146b600080516020613bfc8339815191525490565b83106114945760405163295f44f760e21b81526000600482015260248101849052604401611213565b8060020183815481106114a9576114a9613979565b9060005260206000200154915050919050565b6114c4612015565b6001600160a01b0381166114eb5760405163e6c4247b60e01b815260040160405180910390fd5b600580546001600160a01b0319166001600160a01b0392909216919091179055565b60006109c68261212e565b60606000611532600080516020613bfc8339815191525490565b90506000816001600160401b0381111561154e5761154e613295565b604051908082528060200260200182016040528015611577578160200160208202803683370190505b509050600060015b83811161160c5760008181526001602081905260409091200154600160e01b900460ff1680156115c9575060008181526001602081905260409091200154600160e81b900460ff16155b156115fa57808383815181106115e1576115e1613979565b6020908102919091010152816115f681613960565b9250505b8061160481613960565b91505061157f565b506000816001600160401b0381111561162757611627613295565b604051908082528060200260200182016040528015611650578160200160208202803683370190505b50905060005b828110156116a75783818151811061167057611670613979565b602002602001015182828151811061168a5761168a613979565b60209081029190910101528061169f81613960565b915050611656565b50949350505050565b6000600080516020613bdc8339815191526001600160a01b0383166116eb576040516322718ad960e21b815260006004820152602401611213565b6001600160a01b039092166000908152600390920160205250604090205490565b611714612015565b6114226000612222565b336117288361150d565b6001600160a01b03161461174f576040516359dc379f60e01b815260040160405180910390fd5b806001600160801b03166000036117785760405162bfc92160e01b815260040160405180910390fd5b600082815260016020819052604090912090810154600160e81b900460ff16156117b5576040516364d8436b60e11b815260040160405180910390fd5b80546001600160801b0383166001600160801b03199091168117825560018201805460ff60e01b1916600160e01b17905560405190815283907f1ea85aaf6731daa0c29195039c2a36576fb04e2cd16335504fab8967dfb03f159060200160405180910390a2505050565b600061182a612293565b805490915060ff600160401b82041615906001600160401b03166000811580156118515750825b90506000826001600160401b0316600114801561186d5750303b155b90508115801561187b575080155b156118995760405163f92ee8a960e01b815260040160405180910390fd5b845467ffffffffffffffff1916600117855583156118c357845460ff60401b1916600160401b1785555b6001600160a01b03891615806118e057506001600160a01b038816155b806118f257506001600160a01b038716155b156119105760405163e6c4247b60e01b815260040160405180910390fd5b61191a8b8b6122bc565b6119226122ce565b61192a6122ce565b611933876122d6565b61193b6122e7565b6119436122ce565b60048054600580546001600160a01b0319166001600160a01b038c8116919091179091556103e86bffffffffffffffff00000000909216600160601b918d169190910263ffffffff1916171767ffffffff0000000019166501f40000000017905563ffffffff86166119b7576103e86119b9565b855b6004805463ffffffff92909216600160401b026bffffffff00000000000000001990921691909117905560016000558315611a2e57845460ff60401b19168555604051600181527fc7f505b2f371ae2175ee4913f4499e1f2633a7b5936321eed1cdaeb6115181d29060200160405180910390a15b5050505050505050505050565b611a43612015565b6114226122f7565b6000818152600160208181526040808420815160c08101835281546001600160801b031681529301546001600160a01b0381169284019290925263ffffffff600160a01b8304811691840191909152600160c01b82041660608381019190915260ff600160e01b8304811615156080850152600160e81b909204909116151560a083015282918291829182918291611ae28961150d565b602082015182516040840151608085015160a0860151611b018f611f01565b959f949e506001600160801b039093169c50909a509850965090945092505050565b7f80bb2b638cc20bc4d0a60d66940f3ab4a00c1d7b313497ca82fb0b4ab00793018054606091600080516020613bdc83398151915291610a5190613910565b610ccc338383612340565b33611b778261150d565b6001600160a01b031614611b9e576040516359dc379f60e01b815260040160405180910390fd5b600081815260016020819052604080832080546001600160801b0319168155918201805460ff60e01b1916905551909183917fe0bba5d0bdeddbcc4ef688b9d8170c81883fb4c4a7065d8970c58b47996dd2d79190a25050565b611c038484846111ed565b61127733858585856123f1565b611c1861251c565b611c20612070565b600081815260016020819052604090912090810154600160e81b900460ff1615611c5d576040516364d8436b60e11b815260040160405180910390fd5b6001810154600160e01b900460ff16611c895760405163037eff1360e21b815260040160405180910390fd5b80546001600160801b03163414611cb35760405163569e8c1160e01b815260040160405180910390fd5b6000611cbe8361150d565b82546004549192506001600160801b03169060009061271090611ce79063ffffffff16846139d5565b611cf191906139ec565b60045490915060009061271090611d1690640100000000900463ffffffff16856139d5565b611d2091906139ec565b600186015490915060009081906001600160a01b0390811690871603611d5c5782611d4b8587613a0e565b611d559190613a0e565b9050611dab565b600187015461271090611d7c90600160a01b900463ffffffff16876139d5565b611d8691906139ec565b91508183611d948688613a0e565b611d9e9190613a0e565b611da89190613a0e565b90505b86546001600160801b031916875560018701805461ffff60e01b1916600160e81b179055611dda86338a612566565b600454611df790600160601b90046001600160a01b031685612616565b600554611e0d906001600160a01b031684612616565b8115611e76576001870154611e2b906001600160a01b031683612616565b6001870154604080516001600160a01b0390921682526020820184905289917ff670029fc6f5302baba881b4ae845d1453acdf752b4c19ed81fe0fa6a686409b910160405180910390a25b611e808682612616565b856001600160a01b0316336001600160a01b0316897f704cf6cb1221490022185412a0f82fd80ca9ccf7b5f84482727d0f6924265bd888604051611ec691815260200190565b60405180910390a450505050505050611efe60017f9b779b17422d0df92223018b32b4d1fa46e071723d6817e2486d003becc55f0055565b50565b60606109c6826126b6565b6001600160a01b0391821660009081527f80bb2b638cc20bc4d0a60d66940f3ab4a00c1d7b313497ca82fb0b4ab00793056020908152604080832093909416825291909152205460ff1690565b611f61612015565b6001600160a01b038116611f885760405163e6c4247b60e01b815260040160405180910390fd5b600480546001600160a01b03909216600160601b026bffffffffffffffffffffffff909216919091179055565b611fbd612015565b6001600160a01b038116611fe757604051631e4fbdf760e01b815260006004820152602401611213565b611efe81612222565b60006001600160e01b0319821663780e9d6360e01b14806109c657506109c6826127eb565b336120477f9016d09d72d40fdae2fd8ceac6b6234c7706214fd39c1cd1e609a0528c199300546001600160a01b031690565b6001600160a01b0316146114225760405163118cdaa760e01b8152336004820152602401611213565b600080516020613c1c8339815191525460ff16156114225760405163d93c066560e01b815260040160405180910390fd5b610ccc828260405180602001604052806000815250612810565b60008281527f0542a41881ee128a365a727b282c86fa859579490b9bb45aab8503648c8e7900602081905260409091206120f58382613a67565b506040518381527ff8e1a15aba9398e019f0b49df1a4fde98ee17ae345cb5f6b5e2c27f5033e8ce79060200160405180910390a1505050565b60008061213a83612828565b90506001600160a01b0381166109c657604051637e27328960e01b815260048101849052602401611213565b60009081527f80bb2b638cc20bc4d0a60d66940f3ab4a00c1d7b313497ca82fb0b4ab007930460205260409020546001600160a01b031690565b61143f8383836001612862565b60006121ba848484612978565b949350505050565b6121ca612a71565b600080516020613c1c833981519152805460ff191681557f5db9ee0a495bf2e6ff9c91a7834c1ba4fdd244a5e8aa4e537bd38aeae4b073aa335b6040516001600160a01b03909116815260200160405180910390a150565b7f9016d09d72d40fdae2fd8ceac6b6234c7706214fd39c1cd1e609a0528c19930080546001600160a01b031981166001600160a01b03848116918217845560405192169182907f8be0079c531659141344cd1fd0a4f28419497f9722a3daafe3b4186f6b6457e090600090a3505050565b6000807ff0c57e16840df040f15088dc2f81fe391c3923bec73e23a9662efc9c229c6a006109c6565b6122c4612aa1565b610ccc8282612ac6565b611422612aa1565b6122de612aa1565b611efe81612af7565b6122ef612aa1565b611422612aff565b6122ff612070565b600080516020613c1c833981519152805460ff191660011781557f62e78cea01bee320cd4e420270b5ea74000d11b0c9f74754ebdbfc544b05a25833612204565b600080516020613bdc8339815191526001600160a01b03831661238157604051630b61174360e31b81526001600160a01b0384166004820152602401611213565b6001600160a01b038481166000818152600584016020908152604080832094881680845294825291829020805460ff191687151590811790915591519182527f17307eab39ab6107e8899845ad3d59bd9653f200f220920489ca2b5937696c31910160405180910390a350505050565b6001600160a01b0383163b1561251557604051630a85bd0160e11b81526001600160a01b0384169063150b7a0290612433908890889087908790600401613b26565b6020604051808303816000875af192505050801561246e575060408051601f3d908101601f1916820190925261246b91810190613b59565b60015b6124d7573d80801561249c576040519150601f19603f3d011682016040523d82523d6000602084013e6124a1565b606091505b5080516000036124cf57604051633250574960e11b81526001600160a01b0385166004820152602401611213565b805160208201fd5b6001600160e01b03198116630a85bd0160e11b1461251357604051633250574960e11b81526001600160a01b0385166004820152602401611213565b505b5050505050565b7f9b779b17422d0df92223018b32b4d1fa46e071723d6817e2486d003becc55f0080546001190161256057604051633ee5aeb560e01b815260040160405180910390fd5b60029055565b6001600160a01b03821661259057604051633250574960e11b815260006004820152602401611213565b600061259e838360006121ad565b90506001600160a01b0381166125ca57604051637e27328960e01b815260048101839052602401611213565b836001600160a01b0316816001600160a01b031614611277576040516364283d7b60e01b81526001600160a01b0380861660048301526024820184905282166044820152606401611213565b8015610ccc576000826001600160a01b03168260405160006040518083038185875af1925050503d8060008114612669576040519150601f19603f3d011682016040523d82523d6000602084013e61266e565b606091505b505090508061143f576040516312171d8360e31b815260040160405180910390fd5b60017f9b779b17422d0df92223018b32b4d1fa46e071723d6817e2486d003becc55f0055565b60607f0542a41881ee128a365a727b282c86fa859579490b9bb45aab8503648c8e79006126e28361212e565b50600083815260208290526040812080546126fc90613910565b80601f016020809104026020016040519081016040528092919081815260200182805461272890613910565b80156127755780601f1061274a57610100808354040283529160200191612775565b820191906000526020600020905b81548152906001019060200180831161275857829003601f168201915b50505050509050600061279360408051602081019091526000815290565b905080516000036127a657509392505050565b8151156127d95780826040516020016127c0929190613b76565b6040516020818303038152906040529350505050919050565b6127e285612b07565b95945050505050565b60006001600160e01b03198216632483248360e11b14806109c657506109c682612b7c565b61281a8383612bcc565b61143f3360008585856123f1565b60009081527f80bb2b638cc20bc4d0a60d66940f3ab4a00c1d7b313497ca82fb0b4ab007930260205260409020546001600160a01b031690565b600080516020613bdc833981519152818061288557506001600160a01b03831615155b156129475760006128958561212e565b90506001600160a01b038416158015906128c15750836001600160a01b0316816001600160a01b031614155b80156128d457506128d28185611f0c565b155b156128fd5760405163a9fbf51f60e01b81526001600160a01b0385166004820152602401611213565b82156129455784866001600160a01b0316826001600160a01b03167f8c5be1e5ebec7d5bd14f71427d1e84f3dd0314c0f7b2291e5b200ac8c7c3b92560405160405180910390a45b505b600093845260040160205250506040902080546001600160a01b0319166001600160a01b0392909216919091179055565b600080612986858585612c31565b90506001600160a01b038116612a0f57612a0a84600080516020613bfc833981519152805460008381527f645e039705490088daad89bae25049a34f4a9072d398537b1ab2425f24cbed0360205260408120829055600182018355919091527fa42f15e5d656f8155fd7419d740a6073999f19cd6e061449ce4a257150545bf20155565b612a32565b846001600160a01b0316816001600160a01b031614612a3257612a328185612d3b565b6001600160a01b038516612a4e57612a4984612dd7565b6121ba565b846001600160a01b0316816001600160a01b0316146121ba576121ba8585612eae565b600080516020613c1c8339815191525460ff1661142257604051638dfc202b60e01b815260040160405180910390fd5b612aa9612f09565b61142257604051631afcd79f60e31b815260040160405180910390fd5b612ace612aa1565b600080516020613bdc83398151915280612ae88482613a67565b50600181016112778382613a67565b611fbd612aa1565b612690612aa1565b6060612b128261212e565b506000612b2a60408051602081019091526000815290565b90506000815111612b4a5760405180602001604052806000815250612b75565b80612b5484612f23565b604051602001612b65929190613b76565b6040516020818303038152906040525b9392505050565b60006001600160e01b031982166380ac58cd60e01b1480612bad57506001600160e01b03198216635b5e139f60e01b145b806109c657506301ffc9a760e01b6001600160e01b03198316146109c6565b6001600160a01b038216612bf657604051633250574960e11b815260006004820152602401611213565b6000612c04838360006121ad565b90506001600160a01b0381161561143f576040516339e3563760e11b815260006004820152602401611213565b6000600080516020613bdc83398151915281612c4c85612828565b90506001600160a01b03841615612c6857612c68818587612fb5565b6001600160a01b03811615612ca857612c85600086600080612862565b6001600160a01b0381166000908152600383016020526040902080546000190190555b6001600160a01b03861615612cd9576001600160a01b03861660009081526003830160205260409020805460010190555b600085815260028301602052604080822080546001600160a01b0319166001600160a01b038a811691821790925591518893918516917fddf252ad1be2c89b69c2b068fc378daa952ba7f163c4a11628f55a4df523b3ef91a495945050505050565b600080516020613bbc8339815191526000612d55846116b0565b60008481526001840160209081526040808320546001600160a01b03891684529186905290912091925090818314612daf576000838152602082815260408083205485845281842081905583526001870190915290208290555b6000948552600190930160209081526040808620869055928552929092528220919091555050565b600080516020613bfc83398151915254600080516020613bbc83398151915290600090612e0690600190613a0e565b6000848152600384016020526040812054600285018054939450909284908110612e3257612e32613979565b9060005260206000200154905080846002018381548110612e5557612e55613979565b600091825260208083209091019290925582815260038601909152604080822084905586825281205560028401805480612e9157612e91613ba5565b600190038181906000526020600020016000905590555050505050565b600080516020613bbc83398151915260006001612eca856116b0565b612ed49190613a0e565b6001600160a01b0390941660009081526020838152604080832087845282528083208690559482526001909301909252502055565b6000612f13612293565b54600160401b900460ff16919050565b60606000612f3083613019565b60010190506000816001600160401b03811115612f4f57612f4f613295565b6040519080825280601f01601f191660200182016040528015612f79576020820181803683370190505b5090508181016020015b600019016f181899199a1a9b1b9c1cb0b131b232b360811b600a86061a8153600a8504945084612f8357509392505050565b612fc08383836130f1565b61143f576001600160a01b038316612fee57604051637e27328960e01b815260048101829052602401611213565b60405163177e802f60e01b81526001600160a01b038316600482015260248101829052604401611213565b60008072184f03e93ff9f4daa797ed6e38ed64bf6a1f0160401b83106130585772184f03e93ff9f4daa797ed6e38ed64bf6a1f0160401b830492506040015b6d04ee2d6d415b85acef81000000008310613084576d04ee2d6d415b85acef8100000000830492506020015b662386f26fc1000083106130a257662386f26fc10000830492506010015b6305f5e10083106130ba576305f5e100830492506008015b61271083106130ce57612710830492506004015b606483106130e0576064830492506002015b600a83106109c65760010192915050565b60006001600160a01b038316158015906121ba5750826001600160a01b0316846001600160a01b0316148061312b575061312b8484611f0c565b806121ba5750826001600160a01b031661314483612166565b6001600160a01b031614949350505050565b828054828255906000526020600020908101928215613191579160200282015b82811115613191578251825591602001919060010190613176565b5061319d9291506131a1565b5090565b5b8082111561319d57600081556001016131a2565b6000602082840312156131c857600080fd5b5035919050565b60008083601f8401126131e157600080fd5b5081356001600160401b038111156131f857600080fd5b60208301915083602082850101111561139757600080fd5b6000806020838503121561322357600080fd5b82356001600160401b0381111561323957600080fd5b613245858286016131cf565b90969095509350505050565b6020808252825182820181905260009190848201906040850190845b818110156132895783518352928401929184019160010161326d565b50909695505050505050565b634e487b7160e01b600052604160045260246000fd5b60006001600160401b03808411156132c5576132c5613295565b604051601f8501601f19908116603f011681019082821181831017156132ed576132ed613295565b8160405280935085815286868601111561330657600080fd5b858560208301376000602087830101525050509392505050565b600082601f83011261333157600080fd5b612b75838335602085016132ab565b6000806040838503121561335357600080fd5b82356001600160401b0381111561336957600080fd5b61337585828601613320565b95602094909401359450505050565b6001600160e01b031981168114611efe57600080fd5b6000602082840312156133ac57600080fd5b8135612b7581613384565b60005b838110156133d25781810151838201526020016133ba565b50506000910152565b600081518084526133f38160208601602086016133b7565b601f01601f19169290920160200192915050565b602081526000612b7560208301846133db565b80356001600160a01b038116811461343157600080fd5b919050565b803563ffffffff8116811461343157600080fd5b60008060008060006080868803121561346257600080fd5b61346b8661341a565b945060208601356001600160401b0381111561348657600080fd5b613492888289016131cf565b90955093506134a590506040870161341a565b91506134b360608701613436565b90509295509295909350565b600080604083850312156134d257600080fd5b6134db8361341a565b946020939093013593505050565b6000602082840312156134fb57600080fd5b612b7582613436565b60008083601f84011261351657600080fd5b5081356001600160401b0381111561352d57600080fd5b6020830191508360208260051b850101111561139757600080fd5b60008060008060008060008060008060a08b8d03121561356757600080fd5b8a356001600160401b038082111561357e57600080fd5b61358a8e838f01613504565b909c509a5060208d01359150808211156135a357600080fd5b6135af8e838f01613504565b909a50985060408d01359150808211156135c857600080fd5b6135d48e838f01613504565b909850965060608d01359150808211156135ed57600080fd5b6135f98e838f01613504565b909650945060808d013591508082111561361257600080fd5b5061361f8d828e016131cf565b915080935050809150509295989b9194979a5092959850565b60008060006060848603121561364d57600080fd5b6136568461341a565b92506136646020850161341a565b9150604084013590509250925092565b6000806040838503121561368757600080fd5b50508035926020909101359150565b6000602082840312156136a857600080fd5b612b758261341a565b600080604083850312156136c457600080fd5b8235915060208301356001600160801b03811681146136e257600080fd5b809150509250929050565b60008060008060008060c0878903121561370657600080fd5b86356001600160401b038082111561371d57600080fd5b6137298a838b01613320565b9750602089013591508082111561373f57600080fd5b5061374c89828a01613320565b95505061375b6040880161341a565b93506137696060880161341a565b92506137776080880161341a565b915061378560a08801613436565b90509295509295509295565b6001600160a01b038881168252871660208201526040810186905263ffffffff85166060820152831515608082015282151560a082015260e060c082018190526000906137e0908301846133db565b9998505050505050505050565b6000602082840312156137ff57600080fd5b81356001600160401b0381111561381557600080fd5b6121ba84828501613320565b6000806040838503121561383457600080fd5b61383d8361341a565b9150602083013580151581146136e257600080fd5b6000806000806080858703121561386857600080fd5b6138718561341a565b935061387f6020860161341a565b92506040850135915060608501356001600160401b038111156138a157600080fd5b8501601f810187136138b257600080fd5b6138c1878235602084016132ab565b91505092959194509250565b600080604083850312156138e057600080fd5b6138e98361341a565b91506138f76020840161341a565b90509250929050565b8183823760009101908152919050565b600181811c9082168061392457607f821691505b60208210810361394457634e487b7160e01b600052602260045260246000fd5b50919050565b634e487b7160e01b600052601160045260246000fd5b6000600182016139725761397261394a565b5060010190565b634e487b7160e01b600052603260045260246000fd5b6000808335601e198436030181126139a657600080fd5b8301803591506001600160401b038211156139c057600080fd5b60200191503681900382131561139757600080fd5b80820281158282048414176109c6576109c661394a565b600082613a0957634e487b7160e01b600052601260045260246000fd5b500490565b818103818111156109c6576109c661394a565b601f82111561143f57600081815260208120601f850160051c81016020861015613a485750805b601f850160051c820191505b8181101561251357828155600101613a54565b81516001600160401b03811115613a8057613a80613295565b613a9481613a8e8454613910565b84613a21565b602080601f831160018114613ac95760008415613ab15750858301515b600019600386901b1c1916600185901b178555612513565b600085815260208120601f198616915b82811015613af857888601518255948401946001909101908401613ad9565b5085821015613b165787850151600019600388901b60f8161c191681555b5050505050600190811b01905550565b6001600160a01b0385811682528416602082015260408101839052608060608201819052600090610ca2908301846133db565b600060208284031215613b6b57600080fd5b8151612b7581613384565b60008351613b888184602088016133b7565b835190830190613b9c8183602088016133b7565b01949350505050565b634e487b7160e01b600052603160045260246000fdfe645e039705490088daad89bae25049a34f4a9072d398537b1ab2425f24cbed0080bb2b638cc20bc4d0a60d66940f3ab4a00c1d7b313497ca82fb0b4ab0079300645e039705490088daad89bae25049a34f4a9072d398537b1ab2425f24cbed02cd5ed15c6e187e77e9aee88184c21f4f2182ab5827cb3b7e07fbedcd63f03300a2646970667358221220a9ddf2f6eba41ba957a88a2bc6be3231ea3e3647ae2f32ec9b5301abc7636f2764736f6c63430008140033",
  "linkReferences": {},
  "deployedLinkReferences": {}
}