{
  "_format": "hh-sol-artifact-1",
  "contractName": "OptimizedArtistFactory",
  "sourceName": "contracts/OptimizedArtistFactory.sol",
  "abi": [
    {
      "inputs": [
        {
          "internalType": "address",
          "name": "_implementation",
          "type": "address"
        },
        {
          "internalType": "address",
          "name": "_treasury",
          "type": "address"
        },
        {
          "internalType": "address",
          "name": "_galleryWallet",
          "type": "address"
        }
      ],
      "stateMutability": "nonpayable",
      "type": "constructor"
    },
    {
      "inputs": [],
      "name": "ArtistAlreadyExists",
      "type": "error"
    },
    {
      "inputs": [],
      "name": "ArtistNotFound",
      "type": "error"
    },
    {
      "inputs": [],
      "name": "BatchTooLarge",
      "type": "error"
    },
    {
      "inputs": [],
      "name": "EnforcedPause",
      "type": "error"
    },
    {
      "inputs": [],
      "name": "ExpectedPause",
      "type": "error"
    },
    {
      "inputs": [],
      "name": "FailedDeployment",
      "type": "error"
    },
    {
      "inputs": [
        {
          "internalType": "uint256",
          "name": "balance",
          "type": "uint256"
        },
        {
          "internalType": "uint256",
          "name": "needed",
          "type": "uint256"
        }
      ],
      "name": "InsufficientBalance",
      "type": "error"
    },
    {
      "inputs": [],
      "name": "InvalidAddress",
      "type": "error"
    },
    {
      "inputs": [],
      "name": "InvalidConfiguration",
      "type": "error"
    },
    {
      "inputs": [],
      "name": "InvalidRoyalty",
      "type": "error"
    },
    {
      "inputs": [
        {
          "internalType": "address",
          "name": "owner",
          "type": "address"
        }
      ],
      "name": "OwnableInvalidOwner",
      "type": "error"
    },
    {
      "inputs": [
        {
          "internalType": "address",
          "name": "account",
          "type": "address"
        }
      ],
      "name": "OwnableUnauthorizedAccount",
      "type": "error"
    },
    {
      "anonymous": false,
      "inputs": [
        {
          "indexed": true,
          "internalType": "address",
          "name": "artistWallet",
          "type": "address"
        },
        {
          "indexed": true,
          "internalType": "address",
          "name": "contractAddress",
          "type": "address"
        },
        {
          "indexed": false,
          "internalType": "string",
          "name": "artistName",
          "type": "string"
        },
        {
          "indexed": false,
          "internalType": "uint256",
          "name": "timestamp",
          "type": "uint256"
        }
      ],
      "name": "ArtistContractDeployed",
      "type": "event"
    },
    {
      "anonymous": false,
      "inputs": [
        {
          "indexed": true,
          "internalType": "address",
          "name": "artistContract",
          "type": "address"
        },
        {
          "indexed": false,
          "internalType": "bool",
          "name": "isActive",
          "type": "bool"
        }
      ],
      "name": "ArtistStatusUpdated",
      "type": "event"
    },
    {
      "anonymous": false,
      "inputs": [
        {
          "indexed": true,
          "internalType": "uint256",
          "name": "batchId",
          "type": "uint256"
        },
        {
          "indexed": false,
          "internalType": "address[]",
          "name": "artists",
          "type": "address[]"
        },
        {
          "indexed": false,
          "internalType": "address[]",
          "name": "contracts",
          "type": "address[]"
        },
        {
          "indexed": false,
          "internalType": "uint256",
          "name": "timestamp",
          "type": "uint256"
        }
      ],
      "name": "BatchDeployment",
      "type": "event"
    },
    {
      "anonymous": false,
      "inputs": [
        {
          "indexed": true,
          "internalType": "address",
          "name": "oldImplementation",
          "type": "address"
        },
        {
          "indexed": true,
          "internalType": "address",
          "name": "newImplementation",
          "type": "address"
        }
      ],
      "name": "ImplementationUpdated",
      "type": "event"
    },
    {
      "anonymous": false,
      "inputs": [
        {
          "indexed": true,
          "internalType": "address",
          "name": "previousOwner",
          "type": "address"
        },
        {
          "indexed": true,
          "internalType": "address",
          "name": "newOwner",
          "type": "address"
        }
      ],
      "name": "OwnershipTransferred",
      "type": "event"
    },
    {
      "anonymous": false,
      "inputs": [
        {
          "indexed": false,
          "internalType": "address",
          "name": "account",
          "type": "address"
        }
      ],
      "name": "Paused",
      "type": "event"
    },
    {
      "anonymous": false,
      "inputs": [
        {
          "indexed": false,
          "internalType": "address",
          "name": "account",
          "type": "address"
        }
      ],
      "name": "Unpaused",
      "type": "event"
    },
    {
      "inputs": [],
      "name": "BASIS_POINTS",
      "outputs": [
        {
          "internalType": "uint256",
          "name": "",
          "type": "uint256"
        }
      ],
      "stateMutability": "view",
      "type": "function"
    },
    {
      "inputs": [],
      "name": "MAX_BATCH_SIZE",
      "outputs": [
        {
          "internalType": "uint256",
          "name": "",
          "type": "uint256"
        }
      ],
      "stateMutability": "view",
      "type": "function"
    },
    {
      "inputs": [
        {
          "internalType": "uint256",
          "name": "",
          "type": "uint256"
        }
      ],
      "name": "allArtists",
      "outputs": [
        {
          "internalType": "address",
          "name": "",
          "type": "address"
        }
      ],
      "stateMutability": "view",
      "type": "function"
    },
    {
      "inputs": [
        {
          "internalType": "address",
          "name": "",
          "type": "address"
        }
      ],
      "name": "artists",
      "outputs": [
        {
          "internalType": "address",
          "name": "artistContract",
          "type": "address"
        },
        {
          "internalType": "address",
          "name": "artistWallet",
          "type": "address"
        },
        {
          "internalType": "uint32",
          "name": "royaltyBasisPoints",
          "type": "uint32"
        },
        {
          "internalType": "uint32",
          "name": "deploymentTime",
          "type": "uint32"
        },
        {
          "internalType": "bool",
          "name": "isActive",
          "type": "bool"
        },
        {
          "internalType": "string",
          "name": "artistName",
          "type": "string"
        }
      ],
      "stateMutability": "view",
      "type": "function"
    },
    {
      "inputs": [
        {
          "internalType": "address[]",
          "name": "artistWallets",
          "type": "address[]"
        },
        {
          "internalType": "string[]",
          "name": "artistNames",
          "type": "string[]"
        },
        {
          "components": [
            {
              "internalType": "string",
              "name": "name",
              "type": "string"
            },
            {
              "internalType": "string",
              "name": "symbol",
              "type": "string"
            },
            {
              "internalType": "address",
              "name": "treasury",
              "type": "address"
            },
            {
              "internalType": "address",
              "name": "galleryWallet",
              "type": "address"
            },
            {
              "internalType": "uint32",
              "name": "artistRoyalty",
              "type": "uint32"
            }
          ],
          "internalType": "struct OptimizedArtistFactory.DeploymentConfig[]",
          "name": "configs",
          "type": "tuple[]"
        }
      ],
      "name": "batchDeployArtistContracts",
      "outputs": [],
      "stateMutability": "nonpayable",
      "type": "function"
    },
    {
      "inputs": [],
      "name": "defaultGalleryFee",
      "outputs": [
        {
          "internalType": "uint32",
          "name": "",
          "type": "uint32"
        }
      ],
      "stateMutability": "view",
      "type": "function"
    },
    {
      "inputs": [],
      "name": "defaultPlatformFee",
      "outputs": [
        {
          "internalType": "uint32",
          "name": "",
          "type": "uint32"
        }
      ],
      "stateMutability": "view",
      "type": "function"
    },
    {
      "inputs": [
        {
          "internalType": "address",
          "name": "artistWallet",
          "type": "address"
        },
        {
          "internalType": "string",
          "name": "artistName",
          "type": "string"
        },
        {
          "components": [
            {
              "internalType": "string",
              "name": "name",
              "type": "string"
            },
            {
              "internalType": "string",
              "name": "symbol",
              "type": "string"
            },
            {
              "internalType": "address",
              "name": "treasury",
              "type": "address"
            },
            {
              "internalType": "address",
              "name": "galleryWallet",
              "type": "address"
            },
            {
              "internalType": "uint32",
              "name": "artistRoyalty",
              "type": "uint32"
            }
          ],
          "internalType": "struct OptimizedArtistFactory.DeploymentConfig",
          "name": "config",
          "type": "tuple"
        }
      ],
      "name": "deployArtistContract",
      "outputs": [
        {
          "internalType": "address",
          "name": "contractAddress",
          "type": "address"
        }
      ],
      "stateMutability": "nonpayable",
      "type": "function"
    },
    {
      "inputs": [],
      "name": "galleryWallet",
      "outputs": [
        {
          "internalType": "address",
          "name": "",
          "type": "address"
        }
      ],
      "stateMutability": "view",
      "type": "function"
    },
    {
      "inputs": [],
      "name": "getActiveArtists",
      "outputs": [
        {
          "internalType": "address[]",
          "name": "",
          "type": "address[]"
        }
      ],
      "stateMutability": "view",
      "type": "function"
    },
    {
      "inputs": [
        {
          "internalType": "uint256",
          "name": "offset",
          "type": "uint256"
        },
        {
          "internalType": "uint256",
          "name": "limit",
          "type": "uint256"
        }
      ],
      "name": "getArtistContracts",
      "outputs": [
        {
          "internalType": "address[]",
          "name": "contracts",
          "type": "address[]"
        },
        {
          "components": [
            {
              "internalType": "address",
              "name": "artistContract",
              "type": "address"
            },
            {
              "internalType": "address",
              "name": "artistWallet",
              "type": "address"
            },
            {
              "internalType": "uint32",
              "name": "royaltyBasisPoints",
              "type": "uint32"
            },
            {
              "internalType": "uint32",
              "name": "deploymentTime",
              "type": "uint32"
            },
            {
              "internalType": "bool",
              "name": "isActive",
              "type": "bool"
            },
            {
              "internalType": "string",
              "name": "artistName",
              "type": "string"
            }
          ],
          "internalType": "struct OptimizedArtistFactory.ArtistData[]",
          "name": "data",
          "type": "tuple[]"
        }
      ],
      "stateMutability": "view",
      "type": "function"
    },
    {
      "inputs": [
        {
          "internalType": "address",
          "name": "artistWallet",
          "type": "address"
        }
      ],
      "name": "getArtistData",
      "outputs": [
        {
          "components": [
            {
              "internalType": "address",
              "name": "artistContract",
              "type": "address"
            },
            {
              "internalType": "address",
              "name": "artistWallet",
              "type": "address"
            },
            {
              "internalType": "uint32",
              "name": "royaltyBasisPoints",
              "type": "uint32"
            },
            {
              "internalType": "uint32",
              "name": "deploymentTime",
              "type": "uint32"
            },
            {
              "internalType": "bool",
              "name": "isActive",
              "type": "bool"
            },
            {
              "internalType": "string",
              "name": "artistName",
              "type": "string"
            }
          ],
          "internalType": "struct OptimizedArtistFactory.ArtistData",
          "name": "",
          "type": "tuple"
        }
      ],
      "stateMutability": "view",
      "type": "function"
    },
    {
      "inputs": [],
      "name": "getTotalArtists",
      "outputs": [
        {
          "internalType": "uint256",
          "name": "",
          "type": "uint256"
        }
      ],
      "stateMutability": "view",
      "type": "function"
    },
    {
      "inputs": [],
      "name": "implementation",
      "outputs": [
        {
          "internalType": "address",
          "name": "",
          "type": "address"
        }
      ],
      "stateMutability": "view",
      "type": "function"
    },
    {
      "inputs": [
        {
          "internalType": "address",
          "name": "",
          "type": "address"
        }
      ],
      "name": "isArtistContract",
      "outputs": [
        {
          "internalType": "bool",
          "name": "",
          "type": "bool"
        }
      ],
      "stateMutability": "view",
      "type": "function"
    },
    {
      "inputs": [],
      "name": "owner",
      "outputs": [
        {
          "internalType": "address",
          "name": "",
          "type": "address"
        }
      ],
      "stateMutability": "view",
      "type": "function"
    },
    {
      "inputs": [],
      "name": "pause",
      "outputs": [],
      "stateMutability": "nonpayable",
      "type": "function"
    },
    {
      "inputs": [],
      "name": "paused",
      "outputs": [
        {
          "internalType": "bool",
          "name": "",
          "type": "bool"
        }
      ],
      "stateMutability": "view",
      "type": "function"
    },
    {
      "inputs": [
        {
          "internalType": "address",
          "name": "artistWallet",
          "type": "address"
        }
      ],
      "name": "predictArtistContractAddress",
      "outputs": [
        {
          "internalType": "address",
          "name": "predictedAddress",
          "type": "address"
        }
      ],
      "stateMutability": "view",
      "type": "function"
    },
    {
      "inputs": [],
      "name": "renounceOwnership",
      "outputs": [],
      "stateMutability": "nonpayable",
      "type": "function"
    },
    {
      "inputs": [
        {
          "internalType": "address",
          "name": "newOwner",
          "type": "address"
        }
      ],
      "name": "transferOwnership",
      "outputs": [],
      "stateMutability": "nonpayable",
      "type": "function"
    },
    {
      "inputs": [],
      "name": "treasury",
      "outputs": [
        {
          "internalType": "address",
          "name": "",
          "type": "address"
        }
      ],
      "stateMutability": "view",
      "type": "function"
    },
    {
      "inputs": [],
      "name": "unpause",
      "outputs": [],
      "stateMutability": "nonpayable",
      "type": "function"
    },
    {
      "inputs": [
        {
          "internalType": "address",
          "name": "artistWallet",
          "type": "address"
        },
        {
          "internalType": "bool",
          "name": "isActive",
          "type": "bool"
        }
      ],
      "name": "updateArtistStatus",
      "outputs": [],
      "stateMutability": "nonpayable",
      "type": "function"
    },
    {
      "inputs": [
        {
          "internalType": "uint32",
          "name": "_fee",
          "type": "uint32"
        }
      ],
      "name": "updateDefaultGalleryFee",
      "outputs": [],
      "stateMutability": "nonpayable",
      "type": "function"
    },
    {
      "inputs": [
        {
          "internalType": "uint32",
          "name": "_fee",
          "type": "uint32"
        }
      ],
      "name": "updateDefaultPlatformFee",
      "outputs": [],
      "stateMutability": "nonpayable",
      "type": "function"
    },
    {
      "inputs": [
        {
          "internalType": "address",
          "name": "_galleryWallet",
          "type": "address"
        }
      ],
      "name": "updateGalleryWallet",
      "outputs": [],
      "stateMutability": "nonpayable",
      "type": "function"
    },
    {
      "inputs": [
        {
          "internalType": "address",
          "name": "newImplementation",
          "type": "address"
        }
      ],
      "name": "updateImplementation",
      "outputs": [],
      "stateMutability": "nonpayable",
      "type": "function"
    },
    {
      "inputs": [
        {
          "internalType": "address",
          "name": "_treasury",
          "type": "address"
        }
      ],
      "name": "updateTreasury",
      "outputs": [],
      "stateMutability": "nonpayable",
      "type": "function"
    }
  ],
  "bytecode": "0x608060405260068054600160a01b600160e01b031916643e8000007d60a31b1790553480156200002e57600080fd5b506040516200210838038062002108833981016040819052620000519162000184565b33806200007857604051631e4fbdf760e01b81526000600482015260240160405180910390fd5b620000838162000117565b506001600160a01b0383161580620000a257506001600160a01b038216155b80620000b557506001600160a01b038116155b15620000d45760405163e6c4247b60e01b815260040160405180910390fd5b600180546001600160a01b039485166001600160a01b031991821617909155600580549385169382169390931790925560068054919093169116179055620001ce565b600080546001600160a01b038381166001600160a01b0319831681178455604051919092169283917f8be0079c531659141344cd1fd0a4f28419497f9722a3daafe3b4186f6b6457e09190a35050565b80516001600160a01b03811681146200017f57600080fd5b919050565b6000806000606084860312156200019a57600080fd5b620001a58462000167565b9250620001b56020850162000167565b9150620001c56040850162000167565b90509250925092565b611f2a80620001de6000396000f3fe608060405234801561001057600080fd5b50600436106101cf5760003560e01c8063715018a611610104578063c9c390d7116100a2578063d97045ed11610071578063d97045ed14610408578063e1a6e46e1461041b578063e1f1c4a714610430578063f2fde38b1461043957600080fd5b8063c9c390d7146103c3578063cfdbf254146103da578063d37b5aca146103e2578063d4d65283146103f557600080fd5b80638456cb59116100de5780638456cb59146103765780638da5cb5b1461037e578063a693f0501461038f578063b5e8af70146103a257600080fd5b8063715018a614610338578063751b27f1146103405780637f51bb1f1461036357600080fd5b80633f4ba83a116101715780635c975abb1161014b5780635c975abb146102e15780635fcd7dbc146102ff57806361d027b3146103125780636901a3801461032557600080fd5b80633f4ba83a146102b357806340b93a06146102bb5780635c60da1b146102ce57600080fd5b80630cbc41ad116101ad5780630cbc41ad1461022a5780631c34212c1461024a5780632eeb9c3b14610276578063348c5674146102a157600080fd5b8063023307e9146101d4578063025b22bc146101e9578063069dab8f146101fc575b600080fd5b6101e76101e2366004611751565b61044c565b005b6101e76101f7366004611793565b6104a3565b61020f61020a366004611793565b610524565b604051610221969594939291906117fe565b60405180910390f35b61023d610238366004611793565b610604565b60405161022191906118bb565b60065461026190600160a01b900463ffffffff1681565b60405163ffffffff9091168152602001610221565b610289610284366004611793565b610751565b6040516001600160a01b039091168152602001610221565b6003545b604051908152602001610221565b6101e7610804565b600654610289906001600160a01b031681565b600154610289906001600160a01b031681565b600054600160a01b900460ff165b6040519015158152602001610221565b61028961030d3660046118ce565b610816565b600554610289906001600160a01b031681565b6101e761033336600461197b565b610c91565b6101e7610d4a565b6102ef61034e366004611793565b60046020526000908152604090205460ff1681565b6101e7610371366004611793565b610d5c565b6101e7610dad565b6000546001600160a01b0316610289565b6101e761039d366004611751565b610dbd565b6103b56103b03660046119b7565b610e14565b604051610221929190611a1d565b60065461026190600160c01b900463ffffffff1681565b6102a5600a81565b6102896103f0366004611a8f565b6110ea565b6101e7610403366004611aed565b611114565b6101e7610416366004611793565b6112b5565b610423611306565b6040516102219190611b87565b6102a561271081565b6101e7610447366004611793565b6114c4565b610454611502565b6103e88163ffffffff16111561047d5760405163c52a9bd360e01b815260040160405180910390fd5b6006805463ffffffff909216600160c01b0263ffffffff60c01b19909216919091179055565b6104ab611502565b6001600160a01b0381166104d25760405163e6c4247b60e01b815260040160405180910390fd5b600180546001600160a01b038381166001600160a01b0319831681179093556040519116919082907faa3f731066a578e5f39b4215468d826cdd15373cbc0dfc9cb9bdc649718ef7da90600090a35050565b60026020819052600091825260409091208054600182015492820180546001600160a01b039283169492831693600160a01b840463ffffffff90811694600160c01b810490911693600160e01b90910460ff169261058190611b9a565b80601f01602080910402602001604051908101604052809291908181526020018280546105ad90611b9a565b80156105fa5780601f106105cf576101008083540402835291602001916105fa565b820191906000526020600020905b8154815290600101906020018083116105dd57829003601f168201915b5050505050905086565b61060c61171a565b6001600160a01b03828116600090815260026020526040902054166106445760405163c76d74fd60e01b815260040160405180910390fd5b6001600160a01b03828116600090815260026020818152604092839020835160c081018552815486168152600182015495861692810192909252600160a01b850463ffffffff90811694830194909452600160c01b85049093166060820152600160e01b90930460ff16151560808401528101805460a0840191906106c890611b9a565b80601f01602080910402602001604051908101604052809291908181526020018280546106f490611b9a565b80156107415780601f1061071657610100808354040283529160200191610741565b820191906000526020600020905b81548152906001019060200180831161072457829003601f168201915b5050505050815250509050919050565b6040516bffffffffffffffffffffffff19606083901b166020820152426034820152600090819060540160408051808303601f190181529082905280516020909101206001543060388401526f5af43d82803e903d91602b57fd5bf3ff60248401526001600160a01b039081166014840152733d602d80600a3d3981f3363d3d373d3d3d363d738352605883018290526037600c84012060788401526055604390930192909220909250165b9392505050565b61080c611502565b61081461152f565b565b6000610820611584565b6001600160a01b0385166108475760405163e6c4247b60e01b815260040160405180910390fd5b6001600160a01b038581166000908152600260205260409020541615610880576040516311ade89960e21b815260040160405180910390fd5b61271061089360a0840160808501611751565b63ffffffff1611156108b85760405163e0e54ced60e01b815260040160405180910390fd5b6040516bffffffffffffffffffffffff19606087901b16602082015242603482015261090b9060540160408051601f1981840301815291905280516020909101206001546001600160a01b0316906115af565b905060006001600160a01b0382166109238480611bd4565b6109306020870187611bd4565b600061094260608a0160408b01611793565b6001600160a01b031603610961576005546001600160a01b0316610971565b6109716060890160408a01611793565b600061098360808b0160608c01611793565b6001600160a01b0316036109a2576006546001600160a01b03166109b2565b6109b260808a0160608b01611793565b336109c360a08c0160808d01611751565b6040516024016109da989796959493929190611c44565b60408051601f198184030181529181526020820180516001600160e01b0316631d6c3b0560e21b17905251610a0f9190611ca7565b6000604051808303816000865af19150503d8060008114610a4c576040519150601f19603f3d011682016040523d82523d6000602084013e610a51565b606091505b5050905080610a9f5760405162461bcd60e51b8152602060048201526015602482015274125b9a5d1a585b1a5e985d1a5bdb8819985a5b1959605a1b60448201526064015b60405180910390fd5b6040805160c0810182526001600160a01b03808516825288166020820152908101610ad060a0860160808701611751565b63ffffffff1681526020014263ffffffff16815260200160011515815260200186868080601f01602080910402602001604051908101604052809392919081815260200183838082843760009201829052509390945250506001600160a01b03898116825260026020818152604093849020865181546001600160a01b0319169085161781559086015160018201805495880151606089015160808a0151939096166001600160c01b031990971696909617600160a01b63ffffffff978816021764ffffffffff60c01b1916600160c01b969095169590950260ff60e01b191693909317600160e01b931515939093029290921790925560a084015190925090820190610bdd9082611d28565b50506003805460018082019092557fc2575a0e9e593c00f959f8c92f12db2869c3395a3b0502d05e2516446f71f85b0180546001600160a01b0319166001600160a01b038a811691821790925590851660008181526004602052604090819020805460ff19169094179093559151919250907fc270adc0385d2063aa894567d14502b33692f042d4a44e1534ca49d7e5ed31bc90610c8090899089904290611de8565b60405180910390a350949350505050565b610c99611502565b6001600160a01b0382811660009081526002602052604090205416610cd15760405163c76d74fd60e01b815260040160405180910390fd5b6001600160a01b0380831660009081526002602052604090819020600181018054851515600160e01b0260ff60e01b199091161790555490519116907f28541525a5b55905ae9e5b8d1b04e237285166727f8f3cfc7690d1dd5087903290610d3e90841515815260200190565b60405180910390a25050565b610d52611502565b61081460006115c6565b610d64611502565b6001600160a01b038116610d8b5760405163e6c4247b60e01b815260040160405180910390fd5b600580546001600160a01b0319166001600160a01b0392909216919091179055565b610db5611502565b610814611616565b610dc5611502565b6107d08163ffffffff161115610dee5760405163c52a9bd360e01b815260040160405180910390fd5b6006805463ffffffff909216600160a01b0263ffffffff60a01b19909216919091179055565b6003546060908190808510610e675760408051600080825260208201818152828401909352909190610e5c565b610e4961171a565b815260200190600190039081610e415790505b5092509250506110e3565b6000610e738587611e22565b905081811115610e805750805b6000610e8c8783611e35565b90508067ffffffffffffffff811115610ea757610ea7611cc3565b604051908082528060200260200182016040528015610ed0578160200160208202803683370190505b5094508067ffffffffffffffff811115610eec57610eec611cc3565b604051908082528060200260200182016040528015610f2557816020015b610f1261171a565b815260200190600190039081610f0a5790505b50935060005b818110156110de5760006003610f41838b611e22565b81548110610f5157610f51611e48565b60009182526020808320909101546001600160a01b039081168084526002909252604090922054895191935090911690889084908110610f9357610f93611e48565b6001600160a01b0392831660209182029290920181019190915282821660009081526002808352604091829020825160c081018452815486168152600182015495861694810194909452600160a01b850463ffffffff90811693850193909352600160c01b85049092166060840152600160e01b90930460ff1615156080830152918201805491929160a08401919061102b90611b9a565b80601f016020809104026020016040519081016040528092919081815260200182805461105790611b9a565b80156110a45780601f10611079576101008083540402835291602001916110a4565b820191906000526020600020905b81548152906001019060200180831161108757829003601f168201915b5050505050815250508683815181106110bf576110bf611e48565b60200260200101819052505080806110d690611e5e565b915050610f2b565b505050505b9250929050565b600381815481106110fa57600080fd5b6000918252602090912001546001600160a01b0316905081565b61111c611584565b84838114158061112c5750808214155b1561114a5760405163c52a9bd360e01b815260040160405180910390fd5b600a81111561116c576040516305beb17160e11b815260040160405180910390fd5b60008167ffffffffffffffff81111561118757611187611cc3565b6040519080825280602002602001820160405280156111b0578160200160208202803683370190505b50905060005b8281101561126c576112308989838181106111d3576111d3611e48565b90506020020160208101906111e89190611793565b8888848181106111fa576111fa611e48565b905060200281019061120c9190611bd4565b88888681811061121e5761121e611e48565b905060200281019061030d9190611e77565b82828151811061124257611242611e48565b6001600160a01b03909216602092830291909101909101528061126481611e5e565b9150506111b6565b50427f08d87b33d3ddec4130d38c54b42fab9407d4968f3389e81fe6c0ef02d3ff5af8898984426040516112a39493929190611e8d565b60405180910390a25050505050505050565b6112bd611502565b6001600160a01b0381166112e45760405163e6c4247b60e01b815260040160405180910390fd5b600680546001600160a01b0319166001600160a01b0392909216919091179055565b6003546060906000805b8281101561138757600260006003838154811061132f5761132f611e48565b60009182526020808320909101546001600160a01b0316835282019290925260400190206001015460ff600160e01b9091041615611375578161137181611e5e565b9250505b8061137f81611e5e565b915050611310565b5060008167ffffffffffffffff8111156113a3576113a3611cc3565b6040519080825280602002602001820160405280156113cc578160200160208202803683370190505b5090506000805b848110156114ba5760026000600383815481106113f2576113f2611e48565b60009182526020808320909101546001600160a01b0316835282019290925260400190206001015460ff600160e01b90910416156114a857600260006003838154811061144157611441611e48565b60009182526020808320909101546001600160a01b039081168452908301939093526040909101902054845191169084908490811061148257611482611e48565b6001600160a01b0390921660209283029190910190910152816114a481611e5e565b9250505b806114b281611e5e565b9150506113d3565b5090949350505050565b6114cc611502565b6001600160a01b0381166114f657604051631e4fbdf760e01b815260006004820152602401610a96565b6114ff816115c6565b50565b6000546001600160a01b031633146108145760405163118cdaa760e01b8152336004820152602401610a96565b611537611659565b6000805460ff60a01b191690557f5db9ee0a495bf2e6ff9c91a7834c1ba4fdd244a5e8aa4e537bd38aeae4b073aa335b6040516001600160a01b03909116815260200160405180910390a1565b600054600160a01b900460ff16156108145760405163d93c066560e01b815260040160405180910390fd5b60006115bd83836000611683565b90505b92915050565b600080546001600160a01b038381166001600160a01b0319831681178455604051919092169283917f8be0079c531659141344cd1fd0a4f28419497f9722a3daafe3b4186f6b6457e09190a35050565b61161e611584565b6000805460ff60a01b1916600160a01b1790557f62e78cea01bee320cd4e420270b5ea74000d11b0c9f74754ebdbfc544b05a2586115673390565b600054600160a01b900460ff1661081457604051638dfc202b60e01b815260040160405180910390fd5b6000814710156116af5760405163cf47918160e01b815247600482015260248101839052604401610a96565b763d602d80600a3d3981f3363d3d373d3d3d363d730000008460601b60e81c176000526e5af43d82803e903d91602b57fd5bf38460781b17602052826037600984f590506001600160a01b0381166107fd5760405163b06ebf3d60e01b815260040160405180910390fd5b6040805160c0810182526000808252602082018190529181018290526060808201839052608082019290925260a081019190915290565b60006020828403121561176357600080fd5b813563ffffffff811681146107fd57600080fd5b80356001600160a01b038116811461178e57600080fd5b919050565b6000602082840312156117a557600080fd5b6115bd82611777565b60005b838110156117c95781810151838201526020016117b1565b50506000910152565b600081518084526117ea8160208601602086016117ae565b601f01601f19169290920160200192915050565b6001600160a01b0387811682528616602082015263ffffffff858116604083015284166060820152821515608082015260c060a08201819052600090611846908301846117d2565b98975050505050505050565b600060018060a01b0380835116845280602084015116602085015250604082015163ffffffff8082166040860152806060850151166060860152505060808201511515608084015260a082015160c060a08501526118b360c08501826117d2565b949350505050565b6020815260006115bd6020830184611852565b600080600080606085870312156118e457600080fd5b6118ed85611777565b9350602085013567ffffffffffffffff8082111561190a57600080fd5b818701915087601f83011261191e57600080fd5b81358181111561192d57600080fd5b88602082850101111561193f57600080fd5b60208301955080945050604087013591508082111561195d57600080fd5b50850160a0818803121561197057600080fd5b939692955090935050565b6000806040838503121561198e57600080fd5b61199783611777565b9150602083013580151581146119ac57600080fd5b809150509250929050565b600080604083850312156119ca57600080fd5b50508035926020909101359150565b600081518084526020808501945080840160005b83811015611a125781516001600160a01b0316875295820195908201906001016119ed565b509495945050505050565b604081526000611a3060408301856119d9565b6020838203818501528185518084528284019150828160051b85010183880160005b83811015611a8057601f19878403018552611a6e838351611852565b94860194925090850190600101611a52565b50909998505050505050505050565b600060208284031215611aa157600080fd5b5035919050565b60008083601f840112611aba57600080fd5b50813567ffffffffffffffff811115611ad257600080fd5b6020830191508360208260051b85010111156110e357600080fd5b60008060008060008060608789031215611b0657600080fd5b863567ffffffffffffffff80821115611b1e57600080fd5b611b2a8a838b01611aa8565b90985096506020890135915080821115611b4357600080fd5b611b4f8a838b01611aa8565b90965094506040890135915080821115611b6857600080fd5b50611b7589828a01611aa8565b979a9699509497509295939492505050565b6020815260006115bd60208301846119d9565b600181811c90821680611bae57607f821691505b602082108103611bce57634e487b7160e01b600052602260045260246000fd5b50919050565b6000808335601e19843603018112611beb57600080fd5b83018035915067ffffffffffffffff821115611c0657600080fd5b6020019150368190038213156110e357600080fd5b81835281816020850137506000828201602090810191909152601f909101601f19169091010190565b60c081526000611c5860c083018a8c611c1b565b8281036020840152611c6b81898b611c1b565b6001600160a01b0397881660408501529587166060840152505091909316608082015263ffffffff90921660a090920191909152949350505050565b60008251611cb98184602087016117ae565b9190910192915050565b634e487b7160e01b600052604160045260246000fd5b601f821115611d2357600081815260208120601f850160051c81016020861015611d005750805b601f850160051c820191505b81811015611d1f57828155600101611d0c565b5050505b505050565b815167ffffffffffffffff811115611d4257611d42611cc3565b611d5681611d508454611b9a565b84611cd9565b602080601f831160018114611d8b5760008415611d735750858301515b600019600386901b1c1916600185901b178555611d1f565b600085815260208120601f198616915b82811015611dba57888601518255948401946001909101908401611d9b565b5085821015611dd85787850151600019600388901b60f8161c191681555b5050505050600190811b01905550565b604081526000611dfc604083018587611c1b565b9050826020830152949350505050565b634e487b7160e01b600052601160045260246000fd5b808201808211156115c0576115c0611e0c565b818103818111156115c0576115c0611e0c565b634e487b7160e01b600052603260045260246000fd5b600060018201611e7057611e70611e0c565b5060010190565b60008235609e19833603018112611cb957600080fd5b6060808252810184905260008560808301825b87811015611ece576001600160a01b03611eb984611777565b16825260209283019290910190600101611ea0565b508381036020850152611ee181876119d9565b925050508260408301529594505050505056fea26469706673582212209d474910975fa6a4c2bfcd9777bcf127821d59827b798b09361e4f24a129a97364736f6c63430008140033",
  "linkReferences": {},
  "deployedLinkReferences": {}
}